{
  "_format": "hh-sol-artifact-1",
  "contractName": "AnimalWelfareFund",
  "sourceName": "contracts/Contract.sol",
  "abi": [
    {
      "inputs": [],
      "stateMutability": "payable",
      "type": "constructor"
    },
    {
      "anonymous": false,
      "inputs": [
        {
          "indexed": true,
          "internalType": "address",
          "name": "from",
          "type": "address"
        },
        {
          "indexed": false,
          "internalType": "uint256",
          "name": "timestamp",
          "type": "uint256"
        },
        {
          "indexed": false,
          "internalType": "string",
          "name": "usermessage",
          "type": "string"
        },
        {
          "indexed": false,
          "internalType": "string",
          "name": "username",
          "type": "string"
        },
        {
          "indexed": false,
          "internalType": "uint256",
          "name": "amount",
          "type": "uint256"
        }
      ],
      "name": "MakeDonation",
      "type": "event"
    },
    {
      "inputs": [
        {
          "internalType": "string",
          "name": "_usermessage",
          "type": "string"
        },
        {
          "internalType": "string",
          "name": "_username",
          "type": "string"
        }
      ],
      "name": "donateMonthlyToAnimalWelfare",
      "outputs": [],
      "stateMutability": "payable",
      "type": "function"
    },
    {
      "inputs": [
        {
          "internalType": "string",
          "name": "_usermessage",
          "type": "string"
        },
        {
          "internalType": "string",
          "name": "_username",
          "type": "string"
        }
      ],
      "name": "donateToAnimalWelfare",
      "outputs": [],
      "stateMutability": "payable",
      "type": "function"
    },
    {
      "inputs": [],
      "name": "getAllDonations",
      "outputs": [
        {
          "components": [
            {
              "internalType": "address",
              "name": "sender",
              "type": "address"
            },
            {
              "internalType": "string",
              "name": "usermessage",
              "type": "string"
            },
            {
              "internalType": "string",
              "name": "username",
              "type": "string"
            },
            {
              "internalType": "uint256",
              "name": "timestamp",
              "type": "uint256"
            },
            {
              "internalType": "uint256",
              "name": "amount",
              "type": "uint256"
            }
          ],
          "internalType": "struct AnimalWelfareFund.Donation[]",
          "name": "",
          "type": "tuple[]"
        }
      ],
      "stateMutability": "view",
      "type": "function"
    },
    {
      "inputs": [],
      "name": "getTotalDonations",
      "outputs": [
        {
          "internalType": "uint256",
          "name": "",
          "type": "uint256"
        }
      ],
      "stateMutability": "view",
      "type": "function"
    },
    {
      "inputs": [],
      "name": "lastWithdrawalMonth",
      "outputs": [
        {
          "internalType": "uint256",
          "name": "",
          "type": "uint256"
        }
      ],
      "stateMutability": "view",
      "type": "function"
    },
    {
      "inputs": [],
      "name": "monthlyDonationPool",
      "outputs": [
        {
          "internalType": "uint256",
          "name": "",
          "type": "uint256"
        }
      ],
      "stateMutability": "view",
      "type": "function"
    },
    {
      "inputs": [],
      "name": "owner",
      "outputs": [
        {
          "internalType": "address payable",
          "name": "",
          "type": "address"
        }
      ],
      "stateMutability": "view",
      "type": "function"
    },
    {
      "inputs": [],
      "name": "withdraw",
      "outputs": [],
      "stateMutability": "nonpayable",
      "type": "function"
    }
  ],
  "bytecode": "0x6080604052600180546001600160a01b0319163317905561002362278d004261002b565b60035561004d565b60008261004857634e487b7160e01b600052601260045260246000fd5b500490565b610c038061005c6000396000f3fe60806040526004361061007b5760003560e01c8063777c658f1161004e578063777c658f146100f55780638da5cb5b1461010a578063b10ae81c14610142578063bc0569de1461015857600080fd5b8063152d310714610080578063372749c31461009557806338a59a07146100be5780633ccfd60b146100e0575b600080fd5b61009361008e3660046108a4565b61016b565b005b3480156100a157600080fd5b506100ab60035481565b6040519081526020015b60405180910390f35b3480156100ca57600080fd5b506100d361032e565b6040516100b5919061094e565b3480156100ec57600080fd5b506100936104db565b34801561010157600080fd5b506000546100ab565b34801561011657600080fd5b5060015461012a906001600160a01b031681565b6040516001600160a01b0390911681526020016100b5565b34801561014e57600080fd5b506100ab60025481565b6100936101663660046108a4565b6105ea565b600034116101ba5760405162461bcd60e51b8152602060048201526017602482015276111bdb985d1a5bdb88185b5bdd5b9d081a5b9d985b1a59604a1b60448201526064015b60405180910390fd5b60006101c962278d00426109fe565b90506003548111156101dd576101dd6104db565b60016000808282546101ef9190610a20565b90915550506040805160a081018252338152602081018581529181018490524260608201523460808201526004805460018101825560009190915281517f8a35acfbc15ff81a39ae7d344fd709f28e8600b4aa8c65c6b64bfe7fe36bd19b600590920291820180546001600160a01b0319166001600160a01b0390921691909117815592519192917f8a35acfbc15ff81a39ae7d344fd709f28e8600b4aa8c65c6b64bfe7fe36bd19c909101906102a69082610ad0565b50604082015160028201906102bb9082610ad0565b506060820151816003015560808201518160040155505034600260008282546102e49190610a20565b909155505060405133907fe9776e91216ecd8d4a37cea21270d808b43a13e452c20151dea05adef748db9790610321904290879087903490610b90565b60405180910390a2505050565b60606004805480602002602001604051908101604052809291908181526020016000905b828210156104d25760008481526020908190206040805160a081019091526005850290910180546001600160a01b03168252600181018054929391929184019161039b90610a47565b80601f01602080910402602001604051908101604052809291908181526020018280546103c790610a47565b80156104145780601f106103e957610100808354040283529160200191610414565b820191906000526020600020905b8154815290600101906020018083116103f757829003601f168201915b5050505050815260200160028201805461042d90610a47565b80601f016020809104026020016040519081016040528092919081815260200182805461045990610a47565b80156104a65780601f1061047b576101008083540402835291602001916104a6565b820191906000526020600020905b81548152906001019060200180831161048957829003601f168201915b505050505081526020016003820154815260200160048201548152505081526020019060010190610352565b50505050905090565b6001546001600160a01b0316331461054d5760405162461bcd60e51b815260206004820152602f60248201527f4f6e6c79207468652070726f6a6563742063726561746f722063616e2063616c60448201526e36103a3434b990333ab731ba34b7b760891b60648201526084016101b1565b6000600254116105965760405162461bcd60e51b81526020600482015260146024820152734e6f2066756e647320746f20776974686472617760601b60448201526064016101b1565b6001546002546040516001600160a01b039092169181156108fc0291906000818181858888f193505050501580156105d2573d6000803e3d6000fd5b5060006002556105e562278d00426109fe565b600355565b600034116106345760405162461bcd60e51b8152602060048201526017602482015276111bdb985d1a5bdb88185b5bdd5b9d081a5b9d985b1a59604a1b60448201526064016101b1565b60016000808282546106469190610a20565b90915550506040805160a081018252338152602081018481529181018390524260608201523460808201526004805460018101825560009190915281517f8a35acfbc15ff81a39ae7d344fd709f28e8600b4aa8c65c6b64bfe7fe36bd19b600590920291820180546001600160a01b0319166001600160a01b0390921691909117815592519192917f8a35acfbc15ff81a39ae7d344fd709f28e8600b4aa8c65c6b64bfe7fe36bd19c909101906106fd9082610ad0565b50604082015160028201906107129082610ad0565b50606082015160038201556080909101516004909101556001546040516000916001600160a01b03169034908381818185875af1925050503d8060008114610776576040519150601f19603f3d011682016040523d82523d6000602084013e61077b565b606091505b50509050806107c25760405162461bcd60e51b8152602060048201526013602482015272151c9e481059d85a5b881c1b19585cd9481611606a1b60448201526064016101b1565b336001600160a01b03167fe9776e91216ecd8d4a37cea21270d808b43a13e452c20151dea05adef748db97428585346040516103219493929190610b90565b634e487b7160e01b600052604160045260246000fd5b600082601f83011261082857600080fd5b813567ffffffffffffffff8082111561084357610843610801565b604051601f8301601f19908116603f0116810190828211818310171561086b5761086b610801565b8160405283815286602085880101111561088457600080fd5b836020870160208301376000602085830101528094505050505092915050565b600080604083850312156108b757600080fd5b823567ffffffffffffffff808211156108cf57600080fd5b6108db86838701610817565b935060208501359150808211156108f157600080fd5b506108fe85828601610817565b9150509250929050565b6000815180845260005b8181101561092e57602081850181015186830182015201610912565b506000602082860101526020601f19601f83011685010191505092915050565b60006020808301818452808551808352604092508286019150828160051b87010184880160005b838110156109f057888303603f19018552815180516001600160a01b031684528781015160a0898601819052906109ae82870182610908565b91505087820151858203898701526109c68282610908565b60608481015190880152608093840151939096019290925250509386019390860190600101610975565b509098975050505050505050565b600082610a1b57634e487b7160e01b600052601260045260246000fd5b500490565b80820180821115610a4157634e487b7160e01b600052601160045260246000fd5b92915050565b600181811c90821680610a5b57607f821691505b602082108103610a7b57634e487b7160e01b600052602260045260246000fd5b50919050565b601f821115610acb57600081815260208120601f850160051c81016020861015610aa85750805b601f850160051c820191505b81811015610ac757828155600101610ab4565b5050505b505050565b815167ffffffffffffffff811115610aea57610aea610801565b610afe81610af88454610a47565b84610a81565b602080601f831160018114610b335760008415610b1b5750858301515b600019600386901b1c1916600185901b178555610ac7565b600085815260208120601f198616915b82811015610b6257888601518255948401946001909101908401610b43565b5085821015610b805787850151600019600388901b60f8161c191681555b5050505050600190811b01905550565b848152608060208201526000610ba96080830186610908565b8281036040840152610bbb8186610908565b9150508260608301529594505050505056fea264697066735822122018bf6a669bf8cc53725736d74016543468b5359f4b34f11f3bedad6ce3eefcd264736f6c63430008110033",
  "linkReferences": {},
  "deployedLinkReferences": {}
}