{
  "contractName": "EbookRental",
  "abi": [
    {
      "inputs": [
        {
          "internalType": "address",
          "name": "_userRegistration",
          "type": "address"
        },
        {
          "internalType": "address",
          "name": "_publisherManagement",
          "type": "address"
        },
        {
          "internalType": "address",
          "name": "_paymentSystem",
          "type": "address"
        }
      ],
      "stateMutability": "nonpayable",
      "type": "constructor"
    },
    {
      "anonymous": false,
      "inputs": [
        {
          "indexed": true,
          "internalType": "address",
          "name": "userAddress",
          "type": "address"
        },
        {
          "indexed": true,
          "internalType": "uint256",
          "name": "bookId",
          "type": "uint256"
        },
        {
          "indexed": false,
          "internalType": "string",
          "name": "bookName",
          "type": "string"
        },
        {
          "indexed": false,
          "internalType": "string",
          "name": "authorName",
          "type": "string"
        },
        {
          "indexed": false,
          "internalType": "uint256",
          "name": "rentalFee",
          "type": "uint256"
        },
        {
          "indexed": false,
          "internalType": "uint256",
          "name": "expirationTime",
          "type": "uint256"
        }
      ],
      "name": "BookRented",
      "type": "event"
    },
    {
      "anonymous": false,
      "inputs": [
        {
          "indexed": true,
          "internalType": "address",
          "name": "userAddress",
          "type": "address"
        },
        {
          "indexed": false,
          "internalType": "bool",
          "name": "isRegistered",
          "type": "bool"
        }
      ],
      "name": "LogUserRegistrationStatus",
      "type": "event"
    },
    {
      "inputs": [],
      "name": "owner",
      "outputs": [
        {
          "internalType": "address",
          "name": "",
          "type": "address"
        }
      ],
      "stateMutability": "view",
      "type": "function",
      "constant": true
    },
    {
      "inputs": [],
      "name": "paymentSystemContract",
      "outputs": [
        {
          "internalType": "contract PaymentSystem",
          "name": "",
          "type": "address"
        }
      ],
      "stateMutability": "view",
      "type": "function",
      "constant": true
    },
    {
      "inputs": [],
      "name": "publisherManagementContract",
      "outputs": [
        {
          "internalType": "contract PublisherManagement",
          "name": "",
          "type": "address"
        }
      ],
      "stateMutability": "view",
      "type": "function",
      "constant": true
    },
    {
      "inputs": [
        {
          "internalType": "address",
          "name": "",
          "type": "address"
        },
        {
          "internalType": "uint256",
          "name": "",
          "type": "uint256"
        }
      ],
      "name": "rentedBooks",
      "outputs": [
        {
          "internalType": "bool",
          "name": "",
          "type": "bool"
        }
      ],
      "stateMutability": "view",
      "type": "function",
      "constant": true
    },
    {
      "inputs": [],
      "name": "userRegistrationContract",
      "outputs": [
        {
          "internalType": "contract UserRegistration",
          "name": "",
          "type": "address"
        }
      ],
      "stateMutability": "view",
      "type": "function",
      "constant": true
    },
    {
      "inputs": [
        {
          "internalType": "address",
          "name": "",
          "type": "address"
        },
        {
          "internalType": "uint256",
          "name": "",
          "type": "uint256"
        }
      ],
      "name": "userRentedBooks",
      "outputs": [
        {
          "internalType": "bool",
          "name": "isRented",
          "type": "bool"
        },
        {
          "internalType": "uint256",
          "name": "rentalTimestamp",
          "type": "uint256"
        }
      ],
      "stateMutability": "view",
      "type": "function",
      "constant": true
    },
    {
      "inputs": [
        {
          "internalType": "uint256",
          "name": "_bookId",
          "type": "uint256"
        },
        {
          "internalType": "address",
          "name": "publisherAddress",
          "type": "address"
        }
      ],
      "name": "rentBook",
      "outputs": [],
      "stateMutability": "nonpayable",
      "type": "function"
    },
    {
      "inputs": [
        {
          "internalType": "address",
          "name": "_userAddress",
          "type": "address"
        },
        {
          "internalType": "uint256",
          "name": "_bookId",
          "type": "uint256"
        }
      ],
      "name": "canReadBook",
      "outputs": [
        {
          "internalType": "bool",
          "name": "",
          "type": "bool"
        }
      ],
      "stateMutability": "view",
      "type": "function",
      "constant": true
    },
    {
      "inputs": [],
      "name": "unlockPaymentSystem",
      "outputs": [],
      "stateMutability": "nonpayable",
      "type": "function"
    }
  ],
  "bytecode": "0x60806040523480156200001157600080fd5b5060405162001522380380620015228339818101604052810190620000379190620001ad565b33600360006101000a81548173ffffffffffffffffffffffffffffffffffffffff021916908373ffffffffffffffffffffffffffffffffffffffff160217905550826000806101000a81548173ffffffffffffffffffffffffffffffffffffffff021916908373ffffffffffffffffffffffffffffffffffffffff16021790555081600160006101000a81548173ffffffffffffffffffffffffffffffffffffffff021916908373ffffffffffffffffffffffffffffffffffffffff16021790555080600260006101000a81548173ffffffffffffffffffffffffffffffffffffffff021916908373ffffffffffffffffffffffffffffffffffffffff16021790555050505062000209565b600080fd5b600073ffffffffffffffffffffffffffffffffffffffff82169050919050565b6000620001758262000148565b9050919050565b620001878162000168565b81146200019357600080fd5b50565b600081519050620001a7816200017c565b92915050565b600080600060608486031215620001c957620001c862000143565b5b6000620001d98682870162000196565b9350506020620001ec8682870162000196565b9250506040620001ff8682870162000196565b9150509250925092565b61130980620002196000396000f3fe608060405234801561001057600080fd5b50600436106100935760003560e01c80638da5cb5b116100665780638da5cb5b1461010f578063a512f8941461012d578063c1e9d04214610149578063dfaf269514610167578063f31a84d91461019757610093565b8063098aed8114610098578063193c573f146100b6578063290e8f6a146100e757806346cd4327146100f1575b600080fd5b6100a06101c7565b6040516100ad9190610acc565b60405180910390f35b6100d060048036038101906100cb9190610b6f565b6101ed565b6040516100de929190610bd9565b60405180910390f35b6100ef61022b565b005b6100f961033f565b6040516101069190610c23565b60405180910390f35b610117610363565b6040516101249190610c4d565b60405180910390f35b61014760048036038101906101429190610c68565b610389565b005b610151610850565b60405161015e9190610cc9565b60405180910390f35b610181600480360381019061017c9190610b6f565b610876565b60405161018e9190610ce4565b60405180910390f35b6101b160048036038101906101ac9190610b6f565b610a1e565b6040516101be9190610ce4565b60405180910390f35b600160009054906101000a900473ffffffffffffffffffffffffffffffffffffffff1681565b6005602052816000526040600020602052806000526040600020600091509150508060000160009054906101000a900460ff16908060010154905082565b600360009054906101000a900473ffffffffffffffffffffffffffffffffffffffff1673ffffffffffffffffffffffffffffffffffffffff163373ffffffffffffffffffffffffffffffffffffffff16146102bb576040517f08c379a00000000000000000000000000000000000000000000000000000000081526004016102b290610d82565b60405180910390fd5b600260009054906101000a900473ffffffffffffffffffffffffffffffffffffffff1673ffffffffffffffffffffffffffffffffffffffff1663290e8f6a6040518163ffffffff1660e01b8152600401600060405180830381600087803b15801561032557600080fd5b505af1158015610339573d6000803e3d6000fd5b50505050565b60008054906101000a900473ffffffffffffffffffffffffffffffffffffffff1681565b600360009054906101000a900473ffffffffffffffffffffffffffffffffffffffff1681565b60008054906101000a900473ffffffffffffffffffffffffffffffffffffffff1673ffffffffffffffffffffffffffffffffffffffff1663419dfe8f6040518163ffffffff1660e01b8152600401602060405180830381865afa1580156103f4573d6000803e3d6000fd5b505050506040513d601f19601f820116820180604052508101906104189190610dce565b610457576040517f08c379a000000000000000000000000000000000000000000000000000000000815260040161044e90610e47565b60405180910390fd5b6000806000600160009054906101000a900473ffffffffffffffffffffffffffffffffffffffff1673ffffffffffffffffffffffffffffffffffffffff166309d5553085876040518363ffffffff1660e01b81526004016104b9929190610e67565b600060405180830381865afa1580156104d6573d6000803e3d6000fd5b505050506040513d6000823e3d601f19601f820116820180604052508101906104ff919061100f565b93509350509250600460003373ffffffffffffffffffffffffffffffffffffffff1673ffffffffffffffffffffffffffffffffffffffff168152602001908152602001600020600086815260200190815260200160002060009054906101000a900460ff16156105a4576040517f08c379a000000000000000000000000000000000000000000000000000000000815260040161059b90611116565b60405180910390fd5b600260009054906101000a900473ffffffffffffffffffffffffffffffffffffffff1673ffffffffffffffffffffffffffffffffffffffff1663f98cf07c82600360009054906101000a900473ffffffffffffffffffffffffffffffffffffffff16846040518463ffffffff1660e01b8152600401610624929190611157565b6000604051808303818588803b15801561063d57600080fd5b505af1158015610651573d6000803e3d6000fd5b50505050506001600460003373ffffffffffffffffffffffffffffffffffffffff1673ffffffffffffffffffffffffffffffffffffffff168152602001908152602001600020600087815260200190815260200160002060006101000a81548160ff021916908315150217905550604051806040016040528060011515815260200142815250600560003373ffffffffffffffffffffffffffffffffffffffff1673ffffffffffffffffffffffffffffffffffffffff168152602001908152602001600020600087815260200190815260200160002060008201518160000160006101000a81548160ff02191690831515021790555060208201518160010155905050600160009054906101000a900473ffffffffffffffffffffffffffffffffffffffff1673ffffffffffffffffffffffffffffffffffffffff166385aa09a7338760016040518463ffffffff1660e01b81526004016107b493929190611180565b600060405180830381600087803b1580156107ce57600080fd5b505af11580156107e2573d6000803e3d6000fd5b50505050843373ffffffffffffffffffffffffffffffffffffffff167f2b22b4e6489affe94ae3db9bc1560cdc4bae4a1aee598af98666bc0a0419159e85858562278d004261083191906111e6565b6040516108419493929190611280565b60405180910390a35050505050565b600260009054906101000a900473ffffffffffffffffffffffffffffffffffffffff1681565b60008060008054906101000a900473ffffffffffffffffffffffffffffffffffffffff1673ffffffffffffffffffffffffffffffffffffffff1663419dfe8f6040518163ffffffff1660e01b8152600401602060405180830381865afa1580156108e4573d6000803e3d6000fd5b505050506040513d601f19601f820116820180604052508101906109089190610dce565b90508061094a576040517f08c379a000000000000000000000000000000000000000000000000000000000815260040161094190610e47565b60405180910390fd5b600460008573ffffffffffffffffffffffffffffffffffffffff1673ffffffffffffffffffffffffffffffffffffffff168152602001908152602001600020600084815260200190815260200160002060009054906101000a900460ff168015610a15575062278d00600560008673ffffffffffffffffffffffffffffffffffffffff1673ffffffffffffffffffffffffffffffffffffffff168152602001908152602001600020600085815260200190815260200160002060010154610a1191906111e6565b4211155b91505092915050565b60046020528160005260406000206020528060005260406000206000915091509054906101000a900460ff1681565b600073ffffffffffffffffffffffffffffffffffffffff82169050919050565b6000819050919050565b6000610a92610a8d610a8884610a4d565b610a6d565b610a4d565b9050919050565b6000610aa482610a77565b9050919050565b6000610ab682610a99565b9050919050565b610ac681610aab565b82525050565b6000602082019050610ae16000830184610abd565b92915050565b6000604051905090565b600080fd5b600080fd5b6000610b0682610a4d565b9050919050565b610b1681610afb565b8114610b2157600080fd5b50565b600081359050610b3381610b0d565b92915050565b6000819050919050565b610b4c81610b39565b8114610b5757600080fd5b50565b600081359050610b6981610b43565b92915050565b60008060408385031215610b8657610b85610af1565b5b6000610b9485828601610b24565b9250506020610ba585828601610b5a565b9150509250929050565b60008115159050919050565b610bc481610baf565b82525050565b610bd381610b39565b82525050565b6000604082019050610bee6000830185610bbb565b610bfb6020830184610bca565b9392505050565b6000610c0d82610a99565b9050919050565b610c1d81610c02565b82525050565b6000602082019050610c386000830184610c14565b92915050565b610c4781610afb565b82525050565b6000602082019050610c626000830184610c3e565b92915050565b60008060408385031215610c7f57610c7e610af1565b5b6000610c8d85828601610b5a565b9250506020610c9e85828601610b24565b9150509250929050565b6000610cb382610a99565b9050919050565b610cc381610ca8565b82525050565b6000602082019050610cde6000830184610cba565b92915050565b6000602082019050610cf96000830184610bbb565b92915050565b600082825260208201905092915050565b7f4f6e6c7920746865206f776e65722063616e2063616c6c20746869732066756e60008201527f6374696f6e000000000000000000000000000000000000000000000000000000602082015250565b6000610d6c602583610cff565b9150610d7782610d10565b604082019050919050565b60006020820190508181036000830152610d9b81610d5f565b9050919050565b610dab81610baf565b8114610db657600080fd5b50565b600081519050610dc881610da2565b92915050565b600060208284031215610de457610de3610af1565b5b6000610df284828501610db9565b91505092915050565b7f55736572206973206e6f74207265676973746572656400000000000000000000600082015250565b6000610e31601683610cff565b9150610e3c82610dfb565b602082019050919050565b60006020820190508181036000830152610e6081610e24565b9050919050565b6000604082019050610e7c6000830185610c3e565b610e896020830184610bca565b9392505050565b600080fd5b600080fd5b6000601f19601f8301169050919050565b7f4e487b7100000000000000000000000000000000000000000000000000000000600052604160045260246000fd5b610ee382610e9a565b810181811067ffffffffffffffff82111715610f0257610f01610eab565b5b80604052505050565b6000610f15610ae7565b9050610f218282610eda565b919050565b600067ffffffffffffffff821115610f4157610f40610eab565b5b610f4a82610e9a565b9050602081019050919050565b60005b83811015610f75578082015181840152602081019050610f5a565b83811115610f84576000848401525b50505050565b6000610f9d610f9884610f26565b610f0b565b905082815260208101848484011115610fb957610fb8610e95565b5b610fc4848285610f57565b509392505050565b600082601f830112610fe157610fe0610e90565b5b8151610ff1848260208601610f8a565b91505092915050565b60008151905061100981610b43565b92915050565b6000806000806080858703121561102957611028610af1565b5b600085015167ffffffffffffffff81111561104757611046610af6565b5b61105387828801610fcc565b945050602085015167ffffffffffffffff81111561107457611073610af6565b5b61108087828801610fcc565b935050604085015167ffffffffffffffff8111156110a1576110a0610af6565b5b6110ad87828801610fcc565b92505060606110be87828801610ffa565b91505092959194509250565b7f426f6f6b20697320616c72656164792072656e74656400000000000000000000600082015250565b6000611100601683610cff565b915061110b826110ca565b602082019050919050565b6000602082019050818103600083015261112f816110f3565b9050919050565b600061114182610a4d565b9050919050565b61115181611136565b82525050565b600060408201905061116c6000830185611148565b6111796020830184610bca565b9392505050565b60006060820190506111956000830186610c3e565b6111a26020830185610bca565b6111af6040830184610bbb565b949350505050565b7f4e487b7100000000000000000000000000000000000000000000000000000000600052601160045260246000fd5b60006111f182610b39565b91506111fc83610b39565b9250827fffffffffffffffffffffffffffffffffffffffffffffffffffffffffffffffff03821115611231576112306111b7565b5b828201905092915050565b600081519050919050565b60006112528261123c565b61125c8185610cff565b935061126c818560208601610f57565b61127581610e9a565b840191505092915050565b6000608082019050818103600083015261129a8187611247565b905081810360208301526112ae8186611247565b90506112bd6040830185610bca565b6112ca6060830184610bca565b9594505050505056fea26469706673582212200a722b4acff1fd838dc053b7d3be17e4be4ff582af6fc179bdb457838377fbda64736f6c634300080d0033",
  "immutableReferences": {},
  "source": "// SPDX-License-Identifier: MIT\r\npragma solidity ^0.8.0;\r\n\r\nimport \"./1_UserRegistration.sol\";\r\nimport \"./2_PublisherManagement.sol\";\r\nimport \"./3_PaymentSystem.sol\";\r\n\r\ncontract EbookRental {\r\n    UserRegistration public userRegistrationContract;\r\n    PublisherManagement public publisherManagementContract;\r\n    PaymentSystem public paymentSystemContract;\r\n    address public owner;\r\n\r\n    mapping(address => mapping(uint => bool)) public rentedBooks;\r\n    mapping(address => mapping(uint => RentalInfo)) public userRentedBooks;\r\n\r\n    event BookRented(\r\n        address indexed userAddress,\r\n        uint indexed bookId,\r\n        string bookName,\r\n        string authorName,\r\n        uint rentalFee,\r\n        uint expirationTime\r\n    );\r\n\r\n    event LogUserRegistrationStatus(address indexed userAddress, bool isRegistered);\r\n\r\n    struct RentalInfo {\r\n        bool isRented;\r\n        uint rentalTimestamp;\r\n    }\r\n\r\n    modifier onlyOwner() {\r\n        require(msg.sender == owner, \"Only the owner can call this function\");\r\n        _;\r\n    }\r\n\r\n    constructor(\r\n        address _userRegistration,\r\n        address _publisherManagement,\r\n        address _paymentSystem\r\n    ) {\r\n        owner = msg.sender;\r\n        userRegistrationContract = UserRegistration(_userRegistration);\r\n        publisherManagementContract = PublisherManagement(_publisherManagement);\r\n        paymentSystemContract = PaymentSystem(_paymentSystem);\r\n    }\r\n\r\n    function rentBook(uint _bookId, address publisherAddress) external {\r\n        // Ensure the user is registered\r\n        require(userRegistrationContract.checkIsRegistered(), \"User is not registered\");\r\n\r\n        // Get book information\r\n        (string memory bookName, , string memory authorName, uint rentalFee) = publisherManagementContract.getBookInfo(publisherAddress, _bookId);\r\n\r\n        // Check if the book is available for rent\r\n        require(!rentedBooks[msg.sender][_bookId], \"Book is already rented\");\r\n\r\n        // Process payment\r\n        paymentSystemContract.makePayment{value: rentalFee}(payable(owner), rentalFee);\r\n\r\n        // Record the rented book and set the expiration time to 30 days from now\r\n        rentedBooks[msg.sender][_bookId] = true;\r\n        userRentedBooks[msg.sender][_bookId] = RentalInfo(true, block.timestamp);\r\n\r\n        // Update book availability (mark the book as rented)\r\n        publisherManagementContract.updateBookAvailability(msg.sender, _bookId, true);\r\n\r\n        // Emit the event indicating the successful rental\r\n        emit BookRented(msg.sender, _bookId, bookName, authorName, rentalFee, block.timestamp + 30 days);\r\n    }\r\n\r\n\r\n    function canReadBook(address _userAddress, uint _bookId) external view returns (bool) {\r\n        bool isUserRegistered = userRegistrationContract.checkIsRegistered();\r\n\r\n                // Debugging statements\r\n        if (!isUserRegistered) {\r\n            revert(\"User is not registered\");\r\n        }\r\n\r\n\r\n        return rentedBooks[_userAddress][_bookId] && block.timestamp <= userRentedBooks[_userAddress][_bookId].rentalTimestamp + 30 days;\r\n    }\r\n\r\n    // Unlock the payment system after the transaction is complete\r\n    function unlockPaymentSystem() external onlyOwner {\r\n        paymentSystemContract.unlockPaymentSystem();\r\n    }\r\n}\r\n",
  "sourcePath": "C:\\Users\\Admin\\ebookRental\\contracts\\4_EbookRental.sol",
  "compiler": {
    "name": "solc",
    "version": "0.8.13+commit.abaa5c0e.Emscripten.clang"
  },
  "schemaVersion": "3.4.16",
  "updatedAt": "2023-12-17T15:48:18.264Z",
  "networkType": "ethereum",
  "devdoc": {
    "kind": "dev",
    "methods": {},
    "version": 1
  },
  "userdoc": {
    "kind": "user",
    "methods": {},
    "version": 1
  }
}