{
  "contractName": "PaymentSystem",
  "abi": [
    {
      "inputs": [],
      "stateMutability": "nonpayable",
      "type": "constructor"
    },
    {
      "inputs": [],
      "name": "lockPaymentSystem",
      "outputs": [],
      "stateMutability": "nonpayable",
      "type": "function"
    },
    {
      "inputs": [],
      "name": "unlockPaymentSystem",
      "outputs": [],
      "stateMutability": "nonpayable",
      "type": "function"
    },
    {
      "inputs": [
        {
          "internalType": "address payable",
          "name": "_recipient",
          "type": "address"
        },
        {
          "internalType": "uint256",
          "name": "_amount",
          "type": "uint256"
        }
      ],
      "name": "makePayment",
      "outputs": [],
      "stateMutability": "payable",
      "type": "function",
      "payable": true
    }
  ],
  "bytecode": "0x608060405260008060006101000a81548160ff02191690831515021790555034801561002a57600080fd5b5060008060006101000a81548160ff02191690831515021790555061048c806100546000396000f3fe6080604052600436106100345760003560e01c80630942452414610039578063290e8f6a14610050578063f98cf07c14610067575b600080fd5b34801561004557600080fd5b5061004e610083565b005b34801561005c57600080fd5b5061006561009f565b005b610081600480360381019061007c919061027b565b6100a1565b005b60016000806101000a81548160ff021916908315150217905550565b565b60008054906101000a900460ff16156100ef576040517f08c379a00000000000000000000000000000000000000000000000000000000081526004016100e690610318565b60405180910390fd5b803414610131576040517f08c379a000000000000000000000000000000000000000000000000000000000815260040161012890610384565b60405180910390fd5b60008273ffffffffffffffffffffffffffffffffffffffff1634604051610157906103d5565b60006040518083038185875af1925050503d8060008114610194576040519150601f19603f3d011682016040523d82523d6000602084013e610199565b606091505b50509050806101dd576040517f08c379a00000000000000000000000000000000000000000000000000000000081526004016101d490610436565b60405180910390fd5b505050565b600080fd5b600073ffffffffffffffffffffffffffffffffffffffff82169050919050565b6000610212826101e7565b9050919050565b61022281610207565b811461022d57600080fd5b50565b60008135905061023f81610219565b92915050565b6000819050919050565b61025881610245565b811461026357600080fd5b50565b6000813590506102758161024f565b92915050565b60008060408385031215610292576102916101e2565b5b60006102a085828601610230565b92505060206102b185828601610266565b9150509250929050565b600082825260208201905092915050565b7f5061796d656e742073797374656d206973206c6f636b65640000000000000000600082015250565b60006103026018836102bb565b915061030d826102cc565b602082019050919050565b60006020820190508181036000830152610331816102f5565b9050919050565b7f496e76616c6964207061796d656e740000000000000000000000000000000000600082015250565b600061036e600f836102bb565b915061037982610338565b602082019050919050565b6000602082019050818103600083015261039d81610361565b9050919050565b600081905092915050565b50565b60006103bf6000836103a4565b91506103ca826103af565b600082019050919050565b60006103e0826103b2565b9150819050919050565b7f5061796d656e74206661696c6564000000000000000000000000000000000000600082015250565b6000610420600e836102bb565b915061042b826103ea565b602082019050919050565b6000602082019050818103600083015261044f81610413565b905091905056fea26469706673582212200ea768944d4aeda408fa8012daf9794fdcc94121f5dfd5497562aab8eefc70c864736f6c634300080d0033",
  "immutableReferences": {},
  "source": "// SPDX-License-Identifier: MIT\r\npragma solidity ^0.8.0;\r\n\r\ncontract PaymentSystem {\r\n    bool private locked = false;\r\n    constructor() {\r\n        locked = false;\r\n    }\r\n\r\n    modifier notLocked() {\r\n        require(!locked, \"Payment system is locked\");\r\n        _;\r\n    }\r\n\r\n    function lockPaymentSystem() external {\r\n        locked = true;\r\n    }\r\n\r\n    function unlockPaymentSystem() public {\r\n        // Implementation logic for unlocking the payment system\r\n        // ...\r\n    }\r\n\r\n\r\n    function makePayment(address payable _recipient, uint _amount) external payable notLocked {\r\n        require(msg.value == _amount, \"Invalid payment\");\r\n        (bool success, ) = _recipient.call{value: msg.value}(\"\");\r\n        require(success, \"Payment failed\");\r\n    }\r\n}\r\n\r\n",
  "sourcePath": "C:\\Users\\Admin\\ebookRental\\contracts\\3_PaymentSystem.sol",
  "compiler": {
    "name": "solc",
    "version": "0.8.13+commit.abaa5c0e.Emscripten.clang"
  },
  "schemaVersion": "3.4.16",
  "updatedAt": "2023-12-17T15:48:18.250Z",
  "networkType": "ethereum",
  "devdoc": {
    "kind": "dev",
    "methods": {},
    "version": 1
  },
  "userdoc": {
    "kind": "user",
    "methods": {},
    "version": 1
  }
}