{
  "contractName": "PublisherManagement",
  "abi": [
    {
      "anonymous": false,
      "inputs": [
        {
          "indexed": true,
          "internalType": "address",
          "name": "publisherAddress",
          "type": "address"
        },
        {
          "indexed": true,
          "internalType": "uint256",
          "name": "bookId",
          "type": "uint256"
        },
        {
          "indexed": false,
          "internalType": "string",
          "name": "name",
          "type": "string"
        },
        {
          "indexed": false,
          "internalType": "string",
          "name": "description",
          "type": "string"
        },
        {
          "indexed": false,
          "internalType": "string",
          "name": "authorName",
          "type": "string"
        },
        {
          "indexed": false,
          "internalType": "uint256",
          "name": "price",
          "type": "uint256"
        }
      ],
      "name": "BookAdded",
      "type": "event"
    },
    {
      "anonymous": false,
      "inputs": [
        {
          "indexed": true,
          "internalType": "address",
          "name": "publisherAddress",
          "type": "address"
        }
      ],
      "name": "PublisherRegistered",
      "type": "event"
    },
    {
      "inputs": [
        {
          "internalType": "address",
          "name": "",
          "type": "address"
        }
      ],
      "name": "publishers",
      "outputs": [
        {
          "internalType": "string",
          "name": "name",
          "type": "string"
        },
        {
          "internalType": "string",
          "name": "contactDetails",
          "type": "string"
        }
      ],
      "stateMutability": "view",
      "type": "function",
      "constant": true
    },
    {
      "inputs": [
        {
          "internalType": "string",
          "name": "_name",
          "type": "string"
        },
        {
          "internalType": "string",
          "name": "_contactDetails",
          "type": "string"
        }
      ],
      "name": "registerPublisher",
      "outputs": [],
      "stateMutability": "nonpayable",
      "type": "function"
    },
    {
      "inputs": [
        {
          "internalType": "uint256",
          "name": "_bookId",
          "type": "uint256"
        },
        {
          "internalType": "string",
          "name": "_name",
          "type": "string"
        },
        {
          "internalType": "string",
          "name": "_description",
          "type": "string"
        },
        {
          "internalType": "string",
          "name": "_authorName",
          "type": "string"
        },
        {
          "internalType": "uint256",
          "name": "_price",
          "type": "uint256"
        }
      ],
      "name": "addBookList",
      "outputs": [],
      "stateMutability": "nonpayable",
      "type": "function"
    },
    {
      "inputs": [
        {
          "internalType": "address",
          "name": "_publisherAddress",
          "type": "address"
        },
        {
          "internalType": "uint256",
          "name": "_bookId",
          "type": "uint256"
        }
      ],
      "name": "getBookInfo",
      "outputs": [
        {
          "internalType": "string",
          "name": "",
          "type": "string"
        },
        {
          "internalType": "string",
          "name": "",
          "type": "string"
        },
        {
          "internalType": "string",
          "name": "",
          "type": "string"
        },
        {
          "internalType": "uint256",
          "name": "",
          "type": "uint256"
        }
      ],
      "stateMutability": "view",
      "type": "function",
      "constant": true
    },
    {
      "inputs": [
        {
          "internalType": "address",
          "name": "_publisherAddress",
          "type": "address"
        },
        {
          "internalType": "uint256",
          "name": "_bookId",
          "type": "uint256"
        },
        {
          "internalType": "bool",
          "name": "_isRented",
          "type": "bool"
        }
      ],
      "name": "updateBookAvailability",
      "outputs": [],
      "stateMutability": "nonpayable",
      "type": "function"
    }
  ],
  "bytecode": "0x608060405234801561001057600080fd5b5061128a806100206000396000f3fe608060405234801561001057600080fd5b50600436106100575760003560e01c806309d555301461005c5780630a4d85cd1461008f5780631b340eb3146100c057806385aa09a7146100dc578063c5b477cd146100f8575b600080fd5b61007660048036038101906100719190610a2d565b610114565b6040516100869493929190610b15565b60405180910390f35b6100a960048036038101906100a49190610b6f565b610337565b6040516100b7929190610b9c565b60405180910390f35b6100da60048036038101906100d59190610d08565b61046b565b005b6100f660048036038101906100f19190610e0f565b610687565b005b610112600480360381019061010d9190610e62565b610767565b005b60608060606000806000808873ffffffffffffffffffffffffffffffffffffffff1673ffffffffffffffffffffffffffffffffffffffff16815260200190815260200160002060020160008781526020019081526020016000209050806000018160010182600201836003015483805461018d90610f09565b80601f01602080910402602001604051908101604052809291908181526020018280546101b990610f09565b80156102065780601f106101db57610100808354040283529160200191610206565b820191906000526020600020905b8154815290600101906020018083116101e957829003601f168201915b5050505050935082805461021990610f09565b80601f016020809104026020016040519081016040528092919081815260200182805461024590610f09565b80156102925780601f1061026757610100808354040283529160200191610292565b820191906000526020600020905b81548152906001019060200180831161027557829003601f168201915b505050505092508180546102a590610f09565b80601f01602080910402602001604051908101604052809291908181526020018280546102d190610f09565b801561031e5780601f106102f35761010080835404028352916020019161031e565b820191906000526020600020905b81548152906001019060200180831161030157829003601f168201915b5050505050915094509450945094505092959194509250565b600060205280600052604060002060009150905080600001805461035a90610f09565b80601f016020809104026020016040519081016040528092919081815260200182805461038690610f09565b80156103d35780601f106103a8576101008083540402835291602001916103d3565b820191906000526020600020905b8154815290600101906020018083116103b657829003601f168201915b5050505050908060010180546103e890610f09565b80601f016020809104026020016040519081016040528092919081815260200182805461041490610f09565b80156104615780601f1061043657610100808354040283529160200191610461565b820191906000526020600020905b81548152906001019060200180831161044457829003601f168201915b5050505050905082565b60008451116104af576040517f08c379a00000000000000000000000000000000000000000000000000000000081526004016104a690610f86565b60405180910390fd5b60008351116104f3576040517f08c379a00000000000000000000000000000000000000000000000000000000081526004016104ea90610ff2565b60405180910390fd5b6000825111610537576040517f08c379a000000000000000000000000000000000000000000000000000000000815260040161052e9061105e565b60405180910390fd5b6000811161057a576040517f08c379a0000000000000000000000000000000000000000000000000000000008152600401610571906110ca565b60405180910390fd5b60008060003373ffffffffffffffffffffffffffffffffffffffff1673ffffffffffffffffffffffffffffffffffffffff168152602001908152602001600020905060008160020160008881526020019081526020016000209050858160000190805190602001906105ed9291906108e2565b50848160010190805190602001906106069291906108e2565b508381600201908051906020019061061f9291906108e2565b50828160030181905550863373ffffffffffffffffffffffffffffffffffffffff167fd7af8714750be69c58145fab3167f3b21e1da906115e444b25e2b85ccf869631888888886040516106769493929190610b15565b60405180910390a350505050505050565b8273ffffffffffffffffffffffffffffffffffffffff163373ffffffffffffffffffffffffffffffffffffffff16146106f5576040517f08c379a00000000000000000000000000000000000000000000000000000000081526004016106ec9061115c565b60405180910390fd5b806000808573ffffffffffffffffffffffffffffffffffffffff1673ffffffffffffffffffffffffffffffffffffffff168152602001908152602001600020600201600084815260200190815260200160002060040160006101000a81548160ff021916908315150217905550505050565b60008251116107ab576040517f08c379a00000000000000000000000000000000000000000000000000000000081526004016107a2906111c8565b60405180910390fd5b60008151116107ef576040517f08c379a00000000000000000000000000000000000000000000000000000000081526004016107e690611234565b60405180910390fd5b816000803373ffffffffffffffffffffffffffffffffffffffff1673ffffffffffffffffffffffffffffffffffffffff16815260200190815260200160002060000190805190602001906108449291906108e2565b50806000803373ffffffffffffffffffffffffffffffffffffffff1673ffffffffffffffffffffffffffffffffffffffff168152602001908152602001600020600101908051906020019061089a9291906108e2565b503373ffffffffffffffffffffffffffffffffffffffff167f0872a00e2e723113f8d7a5be0f126918ee1e51d7416f8f1400c5ad86cbc927e360405160405180910390a25050565b8280546108ee90610f09565b90600052602060002090601f0160209004810192826109105760008555610957565b82601f1061092957805160ff1916838001178555610957565b82800160010185558215610957579182015b8281111561095657825182559160200191906001019061093b565b5b5090506109649190610968565b5090565b5b80821115610981576000816000905550600101610969565b5090565b6000604051905090565b600080fd5b600080fd5b600073ffffffffffffffffffffffffffffffffffffffff82169050919050565b60006109c482610999565b9050919050565b6109d4816109b9565b81146109df57600080fd5b50565b6000813590506109f1816109cb565b92915050565b6000819050919050565b610a0a816109f7565b8114610a1557600080fd5b50565b600081359050610a2781610a01565b92915050565b60008060408385031215610a4457610a4361098f565b5b6000610a52858286016109e2565b9250506020610a6385828601610a18565b9150509250929050565b600081519050919050565b600082825260208201905092915050565b60005b83811015610aa7578082015181840152602081019050610a8c565b83811115610ab6576000848401525b50505050565b6000601f19601f8301169050919050565b6000610ad882610a6d565b610ae28185610a78565b9350610af2818560208601610a89565b610afb81610abc565b840191505092915050565b610b0f816109f7565b82525050565b60006080820190508181036000830152610b2f8187610acd565b90508181036020830152610b438186610acd565b90508181036040830152610b578185610acd565b9050610b666060830184610b06565b95945050505050565b600060208284031215610b8557610b8461098f565b5b6000610b93848285016109e2565b91505092915050565b60006040820190508181036000830152610bb68185610acd565b90508181036020830152610bca8184610acd565b90509392505050565b600080fd5b600080fd5b7f4e487b7100000000000000000000000000000000000000000000000000000000600052604160045260246000fd5b610c1582610abc565b810181811067ffffffffffffffff82111715610c3457610c33610bdd565b5b80604052505050565b6000610c47610985565b9050610c538282610c0c565b919050565b600067ffffffffffffffff821115610c7357610c72610bdd565b5b610c7c82610abc565b9050602081019050919050565b82818337600083830152505050565b6000610cab610ca684610c58565b610c3d565b905082815260208101848484011115610cc757610cc6610bd8565b5b610cd2848285610c89565b509392505050565b600082601f830112610cef57610cee610bd3565b5b8135610cff848260208601610c98565b91505092915050565b600080600080600060a08688031215610d2457610d2361098f565b5b6000610d3288828901610a18565b955050602086013567ffffffffffffffff811115610d5357610d52610994565b5b610d5f88828901610cda565b945050604086013567ffffffffffffffff811115610d8057610d7f610994565b5b610d8c88828901610cda565b935050606086013567ffffffffffffffff811115610dad57610dac610994565b5b610db988828901610cda565b9250506080610dca88828901610a18565b9150509295509295909350565b60008115159050919050565b610dec81610dd7565b8114610df757600080fd5b50565b600081359050610e0981610de3565b92915050565b600080600060608486031215610e2857610e2761098f565b5b6000610e36868287016109e2565b9350506020610e4786828701610a18565b9250506040610e5886828701610dfa565b9150509250925092565b60008060408385031215610e7957610e7861098f565b5b600083013567ffffffffffffffff811115610e9757610e96610994565b5b610ea385828601610cda565b925050602083013567ffffffffffffffff811115610ec457610ec3610994565b5b610ed085828601610cda565b9150509250929050565b7f4e487b7100000000000000000000000000000000000000000000000000000000600052602260045260246000fd5b60006002820490506001821680610f2157607f821691505b602082108103610f3457610f33610eda565b5b50919050565b7f4e616d6520697320726571756972656400000000000000000000000000000000600082015250565b6000610f70601083610a78565b9150610f7b82610f3a565b602082019050919050565b60006020820190508181036000830152610f9f81610f63565b9050919050565b7f4465736372697074696f6e206973207265717569726564000000000000000000600082015250565b6000610fdc601783610a78565b9150610fe782610fa6565b602082019050919050565b6000602082019050818103600083015261100b81610fcf565b9050919050565b7f417574686f72206e616d65206973207265717569726564000000000000000000600082015250565b6000611048601783610a78565b915061105382611012565b602082019050919050565b600060208201905081810360008301526110778161103b565b9050919050565b7f5072696365206d7573742062652067726561746572207468616e207a65726f00600082015250565b60006110b4601f83610a78565b91506110bf8261107e565b602082019050919050565b600060208201905081810360008301526110e3816110a7565b9050919050565b7f556e617574686f72697a656420746f2075706461746520626f6f6b206176616960008201527f6c6162696c697479000000000000000000000000000000000000000000000000602082015250565b6000611146602883610a78565b9150611151826110ea565b604082019050919050565b6000602082019050818103600083015261117581611139565b9050919050565b7f4e616d6520697320726571756972650000000000000000000000000000000000600082015250565b60006111b2600f83610a78565b91506111bd8261117c565b602082019050919050565b600060208201905081810360008301526111e1816111a5565b9050919050565b7f436f6e74726163742064657461696c7320617265207265717569726500000000600082015250565b600061121e601c83610a78565b9150611229826111e8565b602082019050919050565b6000602082019050818103600083015261124d81611211565b905091905056fea2646970667358221220c97a2f2e901fab1ff268a15b77e1c251c96be35d5a8866dce993827beb78062364736f6c634300080d0033",
  "immutableReferences": {},
  "source": "// SPDX-License-Identifier: MIT\r\npragma solidity ^0.8.0;\r\n\r\ncontract PublisherManagement {\r\n    struct Publisher {\r\n        string name;\r\n        string contactDetails;\r\n        mapping(uint => Book) books;\r\n    }\r\n    struct Book {\r\n        string name;\r\n        string description;\r\n        string authorName;\r\n        uint price;\r\n        bool isRented; \r\n    }\r\n\r\n\r\n    mapping(address => Publisher) public publishers;\r\n\r\n    event PublisherRegistered(address indexed publisherAddress);\r\n    event BookAdded(\r\n        address indexed publisherAddress,\r\n        uint indexed bookId,\r\n        string name,\r\n        string description,\r\n        string authorName,\r\n        uint price\r\n    );\r\n\r\n    function registerPublisher(\r\n        string memory _name,\r\n        string memory _contactDetails\r\n    ) public {\r\n        require(bytes(_name).length > 0, \"Name is require\");\r\n        require( bytes(_contactDetails).length > 0, \"Contract details are require\");\r\n\r\n        publishers[msg.sender].name = _name;\r\n        publishers[msg.sender].contactDetails = _contactDetails;\r\n\r\n        emit PublisherRegistered(msg.sender);\r\n    }\r\n\r\n    function addBookList(\r\n        uint _bookId,\r\n        string memory _name,\r\n        string memory _description,\r\n        string memory _authorName,\r\n        uint _price\r\n    ) public {\r\n        require(bytes(_name).length > 0, \"Name is required\");\r\n        require(bytes(_description).length > 0, \"Description is required\");\r\n        require(bytes(_authorName).length > 0, \"Author name is required\");\r\n        require(_price > 0, \"Price must be greater than zero\");\r\n\r\n        Publisher storage publisher = publishers[msg.sender];\r\n\r\n        Book storage book = publisher.books[_bookId];\r\n        book.name = _name;\r\n        book.description = _description;\r\n        book.authorName = _authorName;\r\n        book.price = _price;\r\n\r\n        emit BookAdded(msg.sender, _bookId, _name, _description, _authorName, _price);\r\n    }\r\n\r\n    function getBookInfo(\r\n        address _publisherAddress,\r\n        uint _bookId\r\n    ) public view returns (string memory, string memory, string memory, uint) {\r\n        Book storage book = publishers[_publisherAddress].books[_bookId];\r\n        return (book.name, book.description, book.authorName, book.price);\r\n    }\r\n    // Inside PublisherManagement.sol\r\n\r\n    function updateBookAvailability(address _publisherAddress, uint _bookId, bool _isRented) public {\r\n        require(msg.sender == _publisherAddress, \"Unauthorized to update book availability\");\r\n        publishers[_publisherAddress].books[_bookId].isRented = _isRented;\r\n    }\r\n\r\n}",
  "sourcePath": "C:\\Users\\Admin\\ebookRental\\contracts\\2_PublisherManagement.sol",
  "compiler": {
    "name": "solc",
    "version": "0.8.13+commit.abaa5c0e.Emscripten.clang"
  },
  "schemaVersion": "3.4.16",
  "updatedAt": "2023-12-17T15:48:18.234Z",
  "networkType": "ethereum",
  "devdoc": {
    "kind": "dev",
    "methods": {},
    "version": 1
  },
  "userdoc": {
    "kind": "user",
    "methods": {},
    "version": 1
  }
}