{
  "contractName": "UserRegistration",
  "abi": [
    {
      "inputs": [],
      "stateMutability": "nonpayable",
      "type": "constructor"
    },
    {
      "anonymous": false,
      "inputs": [
        {
          "indexed": true,
          "internalType": "address",
          "name": "userAddress",
          "type": "address"
        },
        {
          "indexed": false,
          "internalType": "string",
          "name": "newUsername",
          "type": "string"
        },
        {
          "indexed": false,
          "internalType": "string",
          "name": "newEmail",
          "type": "string"
        }
      ],
      "name": "UserProfileUpdated",
      "type": "event"
    },
    {
      "anonymous": false,
      "inputs": [
        {
          "indexed": true,
          "internalType": "address",
          "name": "userAddress",
          "type": "address"
        },
        {
          "indexed": false,
          "internalType": "string",
          "name": "username",
          "type": "string"
        },
        {
          "indexed": false,
          "internalType": "string",
          "name": "email",
          "type": "string"
        }
      ],
      "name": "UserRegistered",
      "type": "event"
    },
    {
      "inputs": [],
      "name": "owner",
      "outputs": [
        {
          "internalType": "address",
          "name": "",
          "type": "address"
        }
      ],
      "stateMutability": "view",
      "type": "function",
      "constant": true
    },
    {
      "inputs": [
        {
          "internalType": "address",
          "name": "",
          "type": "address"
        }
      ],
      "name": "users",
      "outputs": [
        {
          "internalType": "bool",
          "name": "isRegistered",
          "type": "bool"
        },
        {
          "internalType": "string",
          "name": "username",
          "type": "string"
        },
        {
          "internalType": "string",
          "name": "email",
          "type": "string"
        },
        {
          "internalType": "string",
          "name": "passwordHash",
          "type": "string"
        }
      ],
      "stateMutability": "view",
      "type": "function",
      "constant": true
    },
    {
      "inputs": [],
      "name": "checkIsRegistered",
      "outputs": [
        {
          "internalType": "bool",
          "name": "",
          "type": "bool"
        }
      ],
      "stateMutability": "view",
      "type": "function",
      "constant": true
    },
    {
      "inputs": [
        {
          "internalType": "string",
          "name": "_username",
          "type": "string"
        },
        {
          "internalType": "string",
          "name": "_email",
          "type": "string"
        },
        {
          "internalType": "string",
          "name": "_passwordHash",
          "type": "string"
        }
      ],
      "name": "registerUser",
      "outputs": [],
      "stateMutability": "nonpayable",
      "type": "function"
    },
    {
      "inputs": [
        {
          "internalType": "string",
          "name": "_newUsername",
          "type": "string"
        },
        {
          "internalType": "string",
          "name": "_newEmail",
          "type": "string"
        },
        {
          "internalType": "string",
          "name": "_password",
          "type": "string"
        }
      ],
      "name": "updateProfile",
      "outputs": [],
      "stateMutability": "nonpayable",
      "type": "function"
    }
  ],
  "bytecode": "0x608060405234801561001057600080fd5b50336000806101000a81548173ffffffffffffffffffffffffffffffffffffffff021916908373ffffffffffffffffffffffffffffffffffffffff160217905550611371806100606000396000f3fe608060405234801561001057600080fd5b50600436106100575760003560e01c80631105a5eb1461005c578063419dfe8f146100785780638da5cb5b14610096578063a87430ba146100b4578063d637dcfa146100e7575b600080fd5b61007660048036038101906100719190610b11565b610103565b005b610080610436565b60405161008d9190610bd3565b60405180910390f35b61009e61048d565b6040516100ab9190610c2f565b60405180910390f35b6100ce60048036038101906100c99190610c76565b6104b1565b6040516100de9493929190610d2b565b60405180910390f35b61010160048036038101906100fc9190610b11565b610686565b005b61010b610436565b61014a576040517f08c379a000000000000000000000000000000000000000000000000000000000815260040161014190610dd1565b60405180910390fd5b806002600160003373ffffffffffffffffffffffffffffffffffffffff1673ffffffffffffffffffffffffffffffffffffffff16815260200190815260200160002060030160405160200161019f9190610ef0565b6040516020818303038152906040526040516101bb9190610f4e565b602060405180830381855afa1580156101d8573d6000803e3d6000fd5b5050506040513d601f19601f820116820180604052508101906101fb9190610f9b565b60028260405160200161020e9190610ff9565b60405160208183030381529060405260405161022a9190610f4e565b602060405180830381855afa158015610247573d6000803e3d6000fd5b5050506040513d601f19601f8201168201806040525081019061026a9190610f9b565b146102aa576040517f08c379a00000000000000000000000000000000000000000000000000000000081526004016102a19061105c565b60405180910390fd5b60008451116102ee576040517f08c379a00000000000000000000000000000000000000000000000000000000081526004016102e5906110c8565b60405180910390fd5b6000835111610332576040517f08c379a000000000000000000000000000000000000000000000000000000000815260040161032990611134565b60405180910390fd5b83600160003373ffffffffffffffffffffffffffffffffffffffff1673ffffffffffffffffffffffffffffffffffffffff1681526020019081526020016000206001019080519060200190610388929190610914565b5082600160003373ffffffffffffffffffffffffffffffffffffffff1673ffffffffffffffffffffffffffffffffffffffff16815260200190815260200160002060020190805190602001906103df929190610914565b503373ffffffffffffffffffffffffffffffffffffffff167fc13dafd9d9a1258e2f2de748cef0b799dbcc614ed620f5b0564ae615a759795c8585604051610428929190611154565b60405180910390a250505050565b6000600160003373ffffffffffffffffffffffffffffffffffffffff1673ffffffffffffffffffffffffffffffffffffffff16815260200190815260200160002060000160009054906101000a900460ff16905090565b60008054906101000a900473ffffffffffffffffffffffffffffffffffffffff1681565b60016020528060005260406000206000915090508060000160009054906101000a900460ff16908060010180546104e790610e20565b80601f016020809104026020016040519081016040528092919081815260200182805461051390610e20565b80156105605780601f1061053557610100808354040283529160200191610560565b820191906000526020600020905b81548152906001019060200180831161054357829003601f168201915b50505050509080600201805461057590610e20565b80601f01602080910402602001604051908101604052809291908181526020018280546105a190610e20565b80156105ee5780601f106105c3576101008083540402835291602001916105ee565b820191906000526020600020905b8154815290600101906020018083116105d157829003601f168201915b50505050509080600301805461060390610e20565b80601f016020809104026020016040519081016040528092919081815260200182805461062f90610e20565b801561067c5780601f106106515761010080835404028352916020019161067c565b820191906000526020600020905b81548152906001019060200180831161065f57829003601f168201915b5050505050905084565b600160003373ffffffffffffffffffffffffffffffffffffffff1673ffffffffffffffffffffffffffffffffffffffff16815260200190815260200160002060000160009054906101000a900460ff1615610716576040517f08c379a000000000000000000000000000000000000000000000000000000000815260040161070d906111d7565b60405180910390fd5b600083511161075a576040517f08c379a000000000000000000000000000000000000000000000000000000000815260040161075190611243565b60405180910390fd5b600082511161079e576040517f08c379a0000000000000000000000000000000000000000000000000000000008152600401610795906112af565b60405180910390fd5b60008151116107e2576040517f08c379a00000000000000000000000000000000000000000000000000000000081526004016107d99061131b565b60405180910390fd5b604051806080016040528060011515815260200184815260200183815260200182815250600160003373ffffffffffffffffffffffffffffffffffffffff1673ffffffffffffffffffffffffffffffffffffffff16815260200190815260200160002060008201518160000160006101000a81548160ff0219169083151502179055506020820151816001019080519060200190610881929190610914565b50604082015181600201908051906020019061089e929190610914565b5060608201518160030190805190602001906108bb929190610914565b509050503373ffffffffffffffffffffffffffffffffffffffff167f92822564bab8864c3a47b34e8d23fbce5c46234eb5da261f94087b995ac0f33b8484604051610907929190611154565b60405180910390a2505050565b82805461092090610e20565b90600052602060002090601f0160209004810192826109425760008555610989565b82601f1061095b57805160ff1916838001178555610989565b82800160010185558215610989579182015b8281111561098857825182559160200191906001019061096d565b5b509050610996919061099a565b5090565b5b808211156109b357600081600090555060010161099b565b5090565b6000604051905090565b600080fd5b600080fd5b600080fd5b600080fd5b6000601f19601f8301169050919050565b7f4e487b7100000000000000000000000000000000000000000000000000000000600052604160045260246000fd5b610a1e826109d5565b810181811067ffffffffffffffff82111715610a3d57610a3c6109e6565b5b80604052505050565b6000610a506109b7565b9050610a5c8282610a15565b919050565b600067ffffffffffffffff821115610a7c57610a7b6109e6565b5b610a85826109d5565b9050602081019050919050565b82818337600083830152505050565b6000610ab4610aaf84610a61565b610a46565b905082815260208101848484011115610ad057610acf6109d0565b5b610adb848285610a92565b509392505050565b600082601f830112610af857610af76109cb565b5b8135610b08848260208601610aa1565b91505092915050565b600080600060608486031215610b2a57610b296109c1565b5b600084013567ffffffffffffffff811115610b4857610b476109c6565b5b610b5486828701610ae3565b935050602084013567ffffffffffffffff811115610b7557610b746109c6565b5b610b8186828701610ae3565b925050604084013567ffffffffffffffff811115610ba257610ba16109c6565b5b610bae86828701610ae3565b9150509250925092565b60008115159050919050565b610bcd81610bb8565b82525050565b6000602082019050610be86000830184610bc4565b92915050565b600073ffffffffffffffffffffffffffffffffffffffff82169050919050565b6000610c1982610bee565b9050919050565b610c2981610c0e565b82525050565b6000602082019050610c446000830184610c20565b92915050565b610c5381610c0e565b8114610c5e57600080fd5b50565b600081359050610c7081610c4a565b92915050565b600060208284031215610c8c57610c8b6109c1565b5b6000610c9a84828501610c61565b91505092915050565b600081519050919050565b600082825260208201905092915050565b60005b83811015610cdd578082015181840152602081019050610cc2565b83811115610cec576000848401525b50505050565b6000610cfd82610ca3565b610d078185610cae565b9350610d17818560208601610cbf565b610d20816109d5565b840191505092915050565b6000608082019050610d406000830187610bc4565b8181036020830152610d528186610cf2565b90508181036040830152610d668185610cf2565b90508181036060830152610d7a8184610cf2565b905095945050505050565b7f55736572206973206e6f74207265676973746572656400000000000000000000600082015250565b6000610dbb601683610cae565b9150610dc682610d85565b602082019050919050565b60006020820190508181036000830152610dea81610dae565b9050919050565b7f4e487b7100000000000000000000000000000000000000000000000000000000600052602260045260246000fd5b60006002820490506001821680610e3857607f821691505b602082108103610e4b57610e4a610df1565b5b50919050565b600081905092915050565b60008190508160005260206000209050919050565b60008154610e7e81610e20565b610e888186610e51565b94506001821660008114610ea35760018114610eb457610ee7565b60ff19831686528186019350610ee7565b610ebd85610e5c565b60005b83811015610edf57815481890152600182019150602081019050610ec0565b838801955050505b50505092915050565b6000610efc8284610e71565b915081905092915050565b600081519050919050565b600081905092915050565b6000610f2882610f07565b610f328185610f12565b9350610f42818560208601610cbf565b80840191505092915050565b6000610f5a8284610f1d565b915081905092915050565b6000819050919050565b610f7881610f65565b8114610f8357600080fd5b50565b600081519050610f9581610f6f565b92915050565b600060208284031215610fb157610fb06109c1565b5b6000610fbf84828501610f86565b91505092915050565b6000610fd382610ca3565b610fdd8185610e51565b9350610fed818560208601610cbf565b80840191505092915050565b60006110058284610fc8565b915081905092915050565b7f496e636f72726563742070617373776f72640000000000000000000000000000600082015250565b6000611046601283610cae565b915061105182611010565b602082019050919050565b6000602082019050818103600083015261107581611039565b9050919050565b7f4e657720757365726e616d652063616e6e6f7420626520656d70747900000000600082015250565b60006110b2601c83610cae565b91506110bd8261107c565b602082019050919050565b600060208201905081810360008301526110e1816110a5565b9050919050565b7f4e657720656d61696c2063616e6e6f7420626520656d70747900000000000000600082015250565b600061111e601983610cae565b9150611129826110e8565b602082019050919050565b6000602082019050818103600083015261114d81611111565b9050919050565b6000604082019050818103600083015261116e8185610cf2565b905081810360208301526111828184610cf2565b90509392505050565b7f5573657220697320616c72656164792072656769737465726564000000000000600082015250565b60006111c1601a83610cae565b91506111cc8261118b565b602082019050919050565b600060208201905081810360008301526111f0816111b4565b9050919050565b7f557365726e616d652063616e6e6f7420626520656d7074790000000000000000600082015250565b600061122d601883610cae565b9150611238826111f7565b602082019050919050565b6000602082019050818103600083015261125c81611220565b9050919050565b7f456d61696c2063616e6e6f7420626520656d7074790000000000000000000000600082015250565b6000611299601583610cae565b91506112a482611263565b602082019050919050565b600060208201905081810360008301526112c88161128c565b9050919050565b7f50617373776f726420686173682063616e6e6f7420626520656d707479000000600082015250565b6000611305601d83610cae565b9150611310826112cf565b602082019050919050565b60006020820190508181036000830152611334816112f8565b905091905056fea264697066735822122059d0b2f24d3281491b5f534ab226d610cd5ff2de427b96d21f211d1c947da0c164736f6c634300080d0033",
  "immutableReferences": {},
  "source": "\r\n// SPDX-License-Identifier: MIT\r\npragma solidity ^0.8.0;\r\n\r\ncontract UserRegistration {\r\n    address public owner;\r\n\r\n    struct User {\r\n        bool isRegistered;\r\n        string username;\r\n        string email;\r\n        string passwordHash;\r\n    }\r\n\r\n    mapping(address => User) public users;\r\n\r\n    event UserRegistered(address indexed userAddress, string username, string email);\r\n    event UserProfileUpdated(address indexed userAddress, string newUsername, string newEmail);\r\n\r\n    modifier onlyOwner() {\r\n        require(msg.sender == owner, \"Only the owner can call this function\");\r\n        _;\r\n    }\r\n\r\n    modifier notRegistered() {\r\n        require(!users[msg.sender].isRegistered, \"User is already registered\");\r\n        _;\r\n    }\r\n\r\n    // Declare the checkIsRegistered function\r\n    function checkIsRegistered() public view returns (bool) {\r\n        return users[msg.sender].isRegistered;\r\n    }\r\n\r\n    modifier isRegistered() {\r\n        require(checkIsRegistered(), \"User is not registered\");\r\n        _;\r\n    }\r\n\r\n    modifier verifyPassword(string memory _password) {\r\n        require(\r\n            sha256(abi.encodePacked(_password)) == sha256(abi.encodePacked(users[msg.sender].passwordHash)),\r\n            \"Incorrect password\"\r\n        );\r\n        _;\r\n    }\r\n\r\n    constructor() {\r\n        owner = msg.sender;\r\n    }\r\n\r\n    function registerUser(\r\n        string memory _username,\r\n        string memory _email,\r\n        string memory _passwordHash\r\n    ) external notRegistered {\r\n        require(bytes(_username).length > 0, \"Username cannot be empty\");\r\n        require(bytes(_email).length > 0, \"Email cannot be empty\");\r\n        require(bytes(_passwordHash).length > 0, \"Password hash cannot be empty\");\r\n\r\n        users[msg.sender] = User({\r\n            isRegistered: true,\r\n            username: _username,\r\n            email: _email,\r\n            passwordHash: _passwordHash\r\n        });\r\n\r\n        emit UserRegistered(msg.sender, _username, _email);\r\n    }\r\n\r\n    function updateProfile(\r\n        string memory _newUsername,\r\n        string memory _newEmail,\r\n        string memory _password\r\n    ) external isRegistered verifyPassword(_password) {\r\n        require(bytes(_newUsername).length > 0, \"New username cannot be empty\");\r\n        require(bytes(_newEmail).length > 0, \"New email cannot be empty\");\r\n\r\n        users[msg.sender].username = _newUsername;\r\n        users[msg.sender].email = _newEmail;\r\n\r\n        emit UserProfileUpdated(msg.sender, _newUsername, _newEmail);\r\n    }\r\n}\r\n\r\n",
  "sourcePath": "C:\\Users\\Admin\\ebookRental\\contracts\\1_UserRegistration.sol",
  "compiler": {
    "name": "solc",
    "version": "0.8.13+commit.abaa5c0e.Emscripten.clang"
  },
  "schemaVersion": "3.4.16",
  "updatedAt": "2023-12-17T15:48:18.214Z",
  "networkType": "ethereum",
  "devdoc": {
    "kind": "dev",
    "methods": {},
    "version": 1
  },
  "userdoc": {
    "kind": "user",
    "methods": {},
    "version": 1
  }
}