{
  "contractName": "Authentication",
  "abi": [
    {
      "inputs": [
        {
          "internalType": "address",
          "name": "_address",
          "type": "address"
        },
        {
          "internalType": "string",
          "name": "_name",
          "type": "string"
        },
        {
          "internalType": "string",
          "name": "_password",
          "type": "string"
        }
      ],
      "name": "register",
      "outputs": [
        {
          "internalType": "bool",
          "name": "",
          "type": "bool"
        }
      ],
      "stateMutability": "nonpayable",
      "type": "function"
    },
    {
      "inputs": [
        {
          "internalType": "address",
          "name": "_address",
          "type": "address"
        },
        {
          "internalType": "string",
          "name": "_password",
          "type": "string"
        }
      ],
      "name": "login",
      "outputs": [
        {
          "internalType": "bool",
          "name": "",
          "type": "bool"
        }
      ],
      "stateMutability": "nonpayable",
      "type": "function"
    },
    {
      "inputs": [
        {
          "internalType": "address",
          "name": "_address",
          "type": "address"
        }
      ],
      "name": "checkLogIn",
      "outputs": [
        {
          "internalType": "bool",
          "name": "",
          "type": "bool"
        }
      ],
      "stateMutability": "view",
      "type": "function",
      "constant": true
    },
    {
      "inputs": [
        {
          "internalType": "address",
          "name": "_address",
          "type": "address"
        }
      ],
      "name": "logout",
      "outputs": [
        {
          "internalType": "bool",
          "name": "",
          "type": "bool"
        }
      ],
      "stateMutability": "nonpayable",
      "type": "function"
    }
  ],
  "bytecode": "0x608060405234801561001057600080fd5b50610c55806100206000396000f3fe608060405234801561001057600080fd5b506004361061004c5760003560e01c80632f19d50b146100515780638d59cc0214610081578063cc51f9b9146100b1578063f6f2ede0146100e1575b600080fd5b61006b600480360381019061006691906106e8565b610111565b604051610078919061075f565b60405180910390f35b61009b6004803603810190610096919061077a565b61023c565b6040516100a8919061075f565b60405180910390f35b6100cb60048036038101906100c69190610805565b6103de565b6040516100d8919061075f565b60405180910390f35b6100fb60048036038101906100f69190610805565b6104d8565b604051610108919061075f565b60405180910390f35b60008060008473ffffffffffffffffffffffffffffffffffffffff1673ffffffffffffffffffffffffffffffffffffffff168152602001908152602001600020600201548260405160200161016691906108a3565b60405160208183030381529060405280519060200120036102315760016000808573ffffffffffffffffffffffffffffffffffffffff1673ffffffffffffffffffffffffffffffffffffffff16815260200190815260200160002060030160006101000a81548160ff0219169083151502179055506000808473ffffffffffffffffffffffffffffffffffffffff1673ffffffffffffffffffffffffffffffffffffffff16815260200190815260200160002060030160009054906101000a900460ff169050610236565b600090505b92915050565b6000836000808673ffffffffffffffffffffffffffffffffffffffff1673ffffffffffffffffffffffffffffffffffffffff16815260200190815260200160002060000160006101000a81548173ffffffffffffffffffffffffffffffffffffffff021916908373ffffffffffffffffffffffffffffffffffffffff160217905550826000808673ffffffffffffffffffffffffffffffffffffffff1673ffffffffffffffffffffffffffffffffffffffff168152602001908152602001600020600101908161030c9190610ad0565b508160405160200161031e91906108a3565b604051602081830303815290604052805190602001206000808673ffffffffffffffffffffffffffffffffffffffff1673ffffffffffffffffffffffffffffffffffffffff1681526020019081526020016000206002018190555060008060008673ffffffffffffffffffffffffffffffffffffffff1673ffffffffffffffffffffffffffffffffffffffff16815260200190815260200160002060030160006101000a81548160ff021916908315150217905550600190509392505050565b6000600115156000808473ffffffffffffffffffffffffffffffffffffffff1673ffffffffffffffffffffffffffffffffffffffff16815260200190815260200160002060030160009054906101000a900460ff16151514610475576040517f08c379a000000000000000000000000000000000000000000000000000000000815260040161046c90610bff565b60405180910390fd5b60008060008473ffffffffffffffffffffffffffffffffffffffff1673ffffffffffffffffffffffffffffffffffffffff16815260200190815260200160002060030160006101000a81548160ff02191690831515021790555060019050919050565b60008060008373ffffffffffffffffffffffffffffffffffffffff1673ffffffffffffffffffffffffffffffffffffffff16815260200190815260200160002060030160009054906101000a900460ff169050919050565b6000604051905090565b600080fd5b600080fd5b600073ffffffffffffffffffffffffffffffffffffffff82169050919050565b600061056f82610544565b9050919050565b61057f81610564565b811461058a57600080fd5b50565b60008135905061059c81610576565b92915050565b600080fd5b600080fd5b6000601f19601f8301169050919050565b7f4e487b7100000000000000000000000000000000000000000000000000000000600052604160045260246000fd5b6105f5826105ac565b810181811067ffffffffffffffff82111715610614576106136105bd565b5b80604052505050565b6000610627610530565b905061063382826105ec565b919050565b600067ffffffffffffffff821115610653576106526105bd565b5b61065c826105ac565b9050602081019050919050565b82818337600083830152505050565b600061068b61068684610638565b61061d565b9050828152602081018484840111156106a7576106a66105a7565b5b6106b2848285610669565b509392505050565b600082601f8301126106cf576106ce6105a2565b5b81356106df848260208601610678565b91505092915050565b600080604083850312156106ff576106fe61053a565b5b600061070d8582860161058d565b925050602083013567ffffffffffffffff81111561072e5761072d61053f565b5b61073a858286016106ba565b9150509250929050565b60008115159050919050565b61075981610744565b82525050565b60006020820190506107746000830184610750565b92915050565b6000806000606084860312156107935761079261053a565b5b60006107a18682870161058d565b935050602084013567ffffffffffffffff8111156107c2576107c161053f565b5b6107ce868287016106ba565b925050604084013567ffffffffffffffff8111156107ef576107ee61053f565b5b6107fb868287016106ba565b9150509250925092565b60006020828403121561081b5761081a61053a565b5b60006108298482850161058d565b91505092915050565b600081519050919050565b600081905092915050565b60005b8381101561086657808201518184015260208101905061084b565b60008484015250505050565b600061087d82610832565b610887818561083d565b9350610897818560208601610848565b80840191505092915050565b60006108af8284610872565b915081905092915050565b7f4e487b7100000000000000000000000000000000000000000000000000000000600052602260045260246000fd5b6000600282049050600182168061090157607f821691505b602082108103610914576109136108ba565b5b50919050565b60008190508160005260206000209050919050565b60006020601f8301049050919050565b600082821b905092915050565b60006008830261097c7fffffffffffffffffffffffffffffffffffffffffffffffffffffffffffffffff8261093f565b610986868361093f565b95508019841693508086168417925050509392505050565b6000819050919050565b6000819050919050565b60006109cd6109c86109c38461099e565b6109a8565b61099e565b9050919050565b6000819050919050565b6109e7836109b2565b6109fb6109f3826109d4565b84845461094c565b825550505050565b600090565b610a10610a03565b610a1b8184846109de565b505050565b5b81811015610a3f57610a34600082610a08565b600181019050610a21565b5050565b601f821115610a8457610a558161091a565b610a5e8461092f565b81016020851015610a6d578190505b610a81610a798561092f565b830182610a20565b50505b505050565b600082821c905092915050565b6000610aa760001984600802610a89565b1980831691505092915050565b6000610ac08383610a96565b9150826002028217905092915050565b610ad982610832565b67ffffffffffffffff811115610af257610af16105bd565b5b610afc82546108e9565b610b07828285610a43565b600060209050601f831160018114610b3a5760008415610b28578287015190505b610b328582610ab4565b865550610b9a565b601f198416610b488661091a565b60005b82811015610b7057848901518255600182019150602085019450602081019050610b4b565b86831015610b8d5784890151610b89601f891682610a96565b8355505b6001600288020188555050505b505050505050565b600082825260208201905092915050565b7f5573657220646964206e6f74206c6f67696e0000000000000000000000000000600082015250565b6000610be9601283610ba2565b9150610bf482610bb3565b602082019050919050565b60006020820190508181036000830152610c1881610bdc565b905091905056fea26469706673582212207d2a6bee8ac3baefd63dc6471ffde8e503c4c067890142eab0d82abe9ed17c5964736f6c63430008110033",
  "immutableReferences": {},
  "source": "// SPDX-License-Identifier: MIT\r\npragma solidity ^0.8.17;\r\n\r\ncontract Authentication {\r\n    struct user_detail {\r\n        address addr;\r\n        string name;\r\n        bytes32 password;\r\n        bool isLoggedIn;\r\n    }\r\n\r\n    mapping(address => user_detail) user;\r\n\r\n    function register(\r\n        address _address,\r\n        string memory _name,\r\n        string memory _password\r\n    ) public returns (bool) {\r\n        user[_address].addr = _address;\r\n        user[_address].name = _name;\r\n        user[_address].password = (keccak256(abi.encodePacked(_password)));\r\n        user[_address].isLoggedIn = false;\r\n\r\n        return true;\r\n    }\r\n\r\n    function login(\r\n        address _address,\r\n        string memory _password\r\n    ) public returns (bool) {\r\n        if (\r\n            (keccak256(abi.encodePacked(_password))) == user[_address].password\r\n        ) {\r\n            user[_address].isLoggedIn = true;\r\n            return user[_address].isLoggedIn;\r\n        } else {\r\n            return false;\r\n        }\r\n    }\r\n\r\n    function checkLogIn(address _address) public view returns (bool) {\r\n        return user[_address].isLoggedIn;\r\n    }\r\n\r\n    function logout(address _address) public returns (bool) {\r\n        require(user[_address].isLoggedIn == true, \"User did not login\");\r\n        user[_address].isLoggedIn = false;\r\n        return true;\r\n    }\r\n}\r\n",
  "sourcePath": "D:\\Documents\\Programming\\SIIT\\Blockchain\\Ganache\\contracts\\Authentication.sol",
  "compiler": {
    "name": "solc",
    "version": "0.8.17+commit.8df45f5f.Emscripten.clang"
  },
  "schemaVersion": "3.4.16",
  "updatedAt": "2023-12-17T15:24:15.987Z",
  "networkType": "ethereum",
  "devdoc": {
    "kind": "dev",
    "methods": {},
    "version": 1
  },
  "userdoc": {
    "kind": "user",
    "methods": {},
    "version": 1
  }
}