{
  "contractName": "DailyRewardGame",
  "abi": [
    {
      "inputs": [
        {
          "internalType": "uint256",
          "name": "_rewardAmount",
          "type": "uint256"
        }
      ],
      "stateMutability": "nonpayable",
      "type": "constructor"
    },
    {
      "anonymous": false,
      "inputs": [
        {
          "indexed": true,
          "internalType": "address",
          "name": "player",
          "type": "address"
        },
        {
          "indexed": false,
          "internalType": "uint256",
          "name": "amount",
          "type": "uint256"
        }
      ],
      "name": "RewardClaimed",
      "type": "event"
    },
    {
      "inputs": [],
      "name": "lastRewardBlock",
      "outputs": [
        {
          "internalType": "uint256",
          "name": "",
          "type": "uint256"
        }
      ],
      "stateMutability": "view",
      "type": "function"
    },
    {
      "inputs": [],
      "name": "owner",
      "outputs": [
        {
          "internalType": "address",
          "name": "",
          "type": "address"
        }
      ],
      "stateMutability": "view",
      "type": "function"
    },
    {
      "inputs": [
        {
          "internalType": "address",
          "name": "",
          "type": "address"
        }
      ],
      "name": "playerLastClaim",
      "outputs": [
        {
          "internalType": "uint256",
          "name": "",
          "type": "uint256"
        }
      ],
      "stateMutability": "view",
      "type": "function"
    },
    {
      "inputs": [],
      "name": "rewardAmount",
      "outputs": [
        {
          "internalType": "uint256",
          "name": "",
          "type": "uint256"
        }
      ],
      "stateMutability": "view",
      "type": "function"
    },
    {
      "inputs": [
        {
          "internalType": "uint256",
          "name": "_rewardAmount",
          "type": "uint256"
        }
      ],
      "name": "setRewardAmount",
      "outputs": [],
      "stateMutability": "nonpayable",
      "type": "function"
    },
    {
      "inputs": [],
      "name": "claimDailyReward",
      "outputs": [],
      "stateMutability": "nonpayable",
      "type": "function"
    },
    {
      "inputs": [],
      "name": "rewardTimeout",
      "outputs": [
        {
          "internalType": "uint256",
          "name": "",
          "type": "uint256"
        }
      ],
      "stateMutability": "view",
      "type": "function"
    },
    {
      "inputs": [],
      "name": "withdrawFunds",
      "outputs": [],
      "stateMutability": "nonpayable",
      "type": "function"
    }
  ],
  "bytecode": "0x608060405234801561001057600080fd5b50604051610b30380380610b30833981810160405281019061003291906100c1565b336000806101000a81548173ffffffffffffffffffffffffffffffffffffffff021916908373ffffffffffffffffffffffffffffffffffffffff1602179055508060018190555043600281905550506100ee565b600080fd5b6000819050919050565b61009e8161008b565b81146100a957600080fd5b50565b6000815190506100bb81610095565b92915050565b6000602082840312156100d7576100d6610086565b5b60006100e5848285016100ac565b91505092915050565b610a33806100fd6000396000f3fe608060405234801561001057600080fd5b50600436106100885760003560e01c8063a8a65a781161005b578063a8a65a78146100dd578063a9f8d181146100f9578063b1cbcd0214610117578063f7b2a7be1461014757610088565b8063072c7bc61461008d57806324600fc3146100ab57806383f8b7e2146100b55780638da5cb5b146100bf575b600080fd5b610095610165565b6040516100a29190610619565b60405180910390f35b6100b36101ac565b005b6100bd6102a3565b005b6100c7610514565b6040516100d49190610675565b60405180910390f35b6100f760048036038101906100f291906106c1565b610538565b005b6101016105d0565b60405161010e9190610619565b60405180910390f35b610131600480360381019061012c919061071a565b6105d6565b60405161013e9190610619565b60405180910390f35b61014f6105ee565b60405161015c9190610619565b60405180910390f35b6000600360003373ffffffffffffffffffffffffffffffffffffffff1673ffffffffffffffffffffffffffffffffffffffff16815260200190815260200160002054905090565b60008054906101000a900473ffffffffffffffffffffffffffffffffffffffff1673ffffffffffffffffffffffffffffffffffffffff163373ffffffffffffffffffffffffffffffffffffffff161461023a576040517f08c379a0000000000000000000000000000000000000000000000000000000008152600401610231906107a4565b60405180910390fd5b60008054906101000a900473ffffffffffffffffffffffffffffffffffffffff1673ffffffffffffffffffffffffffffffffffffffff166108fc479081150290604051600060405180830381858888f193505050501580156102a0573d6000803e3d6000fd5b50565b600254600360003373ffffffffffffffffffffffffffffffffffffffff1673ffffffffffffffffffffffffffffffffffffffff1681526020019081526020016000205410610326576040517f08c379a000000000000000000000000000000000000000000000000000000000815260040161031d90610810565b60405180910390fd5b6000600360003373ffffffffffffffffffffffffffffffffffffffff1673ffffffffffffffffffffffffffffffffffffffff1681526020019081526020016000205443610373919061085f565b90506116808110156103ba576040517f08c379a00000000000000000000000000000000000000000000000000000000081526004016103b190610905565b60405180910390fd5b60006103c5336105f4565b90506000811161040a576040517f08c379a000000000000000000000000000000000000000000000000000000000815260040161040190610971565b60405180910390fd5b43600360003373ffffffffffffffffffffffffffffffffffffffff1673ffffffffffffffffffffffffffffffffffffffff168152602001908152602001600020819055503373ffffffffffffffffffffffffffffffffffffffff166108fc829081150290604051600060405180830381858888f193505050506104c2576040517f08c379a00000000000000000000000000000000000000000000000000000000081526004016104b9906109dd565b60405180910390fd5b3373ffffffffffffffffffffffffffffffffffffffff167f106f923f993c2149d49b4255ff723acafa1f2d94393f561d3eda32ae348f7241826040516105089190610619565b60405180910390a25050565b60008054906101000a900473ffffffffffffffffffffffffffffffffffffffff1681565b60008054906101000a900473ffffffffffffffffffffffffffffffffffffffff1673ffffffffffffffffffffffffffffffffffffffff163373ffffffffffffffffffffffffffffffffffffffff16146105c6576040517f08c379a00000000000000000000000000000000000000000000000000000000081526004016105bd906107a4565b60405180910390fd5b8060018190555050565b60025481565b60036020528060005260406000206000915090505481565b60015481565b60006001549050919050565b6000819050919050565b61061381610600565b82525050565b600060208201905061062e600083018461060a565b92915050565b600073ffffffffffffffffffffffffffffffffffffffff82169050919050565b600061065f82610634565b9050919050565b61066f81610654565b82525050565b600060208201905061068a6000830184610666565b92915050565b600080fd5b61069e81610600565b81146106a957600080fd5b50565b6000813590506106bb81610695565b92915050565b6000602082840312156106d7576106d6610690565b5b60006106e5848285016106ac565b91505092915050565b6106f781610654565b811461070257600080fd5b50565b600081359050610714816106ee565b92915050565b6000602082840312156107305761072f610690565b5b600061073e84828501610705565b91505092915050565b600082825260208201905092915050565b7f4e6f742074686520636f6e7472616374206f776e657200000000000000000000600082015250565b600061078e601683610747565b915061079982610758565b602082019050919050565b600060208201905081810360008301526107bd81610781565b9050919050565b7f416c726561647920636c61696d656420746f6461790000000000000000000000600082015250565b60006107fa601583610747565b9150610805826107c4565b602082019050919050565b60006020820190508181036000830152610829816107ed565b9050919050565b7f4e487b7100000000000000000000000000000000000000000000000000000000600052601160045260246000fd5b600061086a82610600565b915061087583610600565b925082820390508181111561088d5761088c610830565b5b92915050565b7f596f752063616e206f6e6c7920636c61696d206f6e636520657665727920323460008201527f20686f7572730000000000000000000000000000000000000000000000000000602082015250565b60006108ef602683610747565b91506108fa82610893565b604082019050919050565b6000602082019050818103600083015261091e816108e2565b9050919050565b7f496e73756666696369656e742066756e647320666f7220726577617264000000600082015250565b600061095b601d83610747565b915061096682610925565b602082019050919050565b6000602082019050818103600083015261098a8161094e565b9050919050565b7f4661696c656420746f2073656e64207265776172640000000000000000000000600082015250565b60006109c7601583610747565b91506109d282610991565b602082019050919050565b600060208201905081810360008301526109f6816109ba565b905091905056fea2646970667358221220f50ec23991fb64c912e57f2d410039cbb7d35bee7a148db1e5ba1cdb14bf61a264736f6c63430008110033",
  "immutableReferences": {},
  "source": "// SPDX-License-Identifier: MIT\r\npragma solidity ^0.8.17;\r\n\r\ncontract DailyRewardGame {\r\n    address public owner;\r\n    uint256 public rewardAmount;\r\n    uint256 public lastRewardBlock;\r\n    mapping(address => uint256) public playerLastClaim;\r\n\r\n    event RewardClaimed(address indexed player, uint256 amount);\r\n\r\n    modifier onlyOwner() {\r\n        require(msg.sender == owner, \"Not the contract owner\");\r\n        _;\r\n    }\r\n\r\n    constructor(uint256 _rewardAmount) {\r\n        owner = msg.sender;\r\n        rewardAmount = _rewardAmount;\r\n        lastRewardBlock = block.number;\r\n    }\r\n\r\n    function setRewardAmount(uint256 _rewardAmount) external onlyOwner {\r\n        rewardAmount = _rewardAmount;\r\n    }\r\n\r\n    function claimDailyReward() external {\r\n        require(\r\n            playerLastClaim[msg.sender] < lastRewardBlock,\r\n            \"Already claimed today\"\r\n        );\r\n\r\n        uint256 blocksSinceLastClaim = block.number -\r\n            playerLastClaim[msg.sender];\r\n        require(\r\n            blocksSinceLastClaim >= 5760,\r\n            \"You can only claim once every 24 hours\"\r\n        ); // Assuming 15 seconds per block\r\n\r\n        // Calculate and transfer the reward\r\n        uint256 playerReward = calculateReward(msg.sender);\r\n        require(playerReward > 0, \"Insufficient funds for reward\");\r\n\r\n        playerLastClaim[msg.sender] = block.number;\r\n\r\n        // Transfer reward to the player\r\n        require(\r\n            payable(msg.sender).send(playerReward),\r\n            \"Failed to send reward\"\r\n        );\r\n\r\n        emit RewardClaimed(msg.sender, playerReward);\r\n    }\r\n\r\n    function calculateReward(address player) internal view returns (uint256) {\r\n        // You can implement custom logic here to calculate the reward based on player's achievements, level, etc.\r\n        return rewardAmount;\r\n    }\r\n\r\n    function rewardTimeout() public view returns (uint256) {\r\n        return playerLastClaim[msg.sender];\r\n    }\r\n\r\n    function withdrawFunds() external onlyOwner {\r\n        payable(owner).transfer(address(this).balance);\r\n    }\r\n}\r\n",
  "sourcePath": "D:\\Documents\\Programming\\SIIT\\Blockchain\\Ganache\\contracts\\DailyLogin.sol",
  "compiler": {
    "name": "solc",
    "version": "0.8.17+commit.8df45f5f.Emscripten.clang"
  },
  "schemaVersion": "3.4.16",
  "updatedAt": "2023-12-17T15:24:14.670Z",
  "devdoc": {
    "kind": "dev",
    "methods": {},
    "version": 1
  },
  "userdoc": {
    "kind": "user",
    "methods": {},
    "version": 1
  }
}