{
  "contractName": "DailyLogin",
  "abi": [
    {
      "inputs": [
        {
          "internalType": "contract GameToken",
          "name": "_gameToken",
          "type": "address"
        }
      ],
      "stateMutability": "nonpayable",
      "type": "constructor"
    },
    {
      "anonymous": false,
      "inputs": [
        {
          "indexed": true,
          "internalType": "address",
          "name": "player",
          "type": "address"
        },
        {
          "indexed": false,
          "internalType": "uint256",
          "name": "day",
          "type": "uint256"
        },
        {
          "indexed": false,
          "internalType": "uint256",
          "name": "reward",
          "type": "uint256"
        }
      ],
      "name": "DailyReward",
      "type": "event"
    },
    {
      "anonymous": false,
      "inputs": [
        {
          "indexed": true,
          "internalType": "address",
          "name": "previousOwner",
          "type": "address"
        },
        {
          "indexed": true,
          "internalType": "address",
          "name": "newOwner",
          "type": "address"
        }
      ],
      "name": "OwnershipTransferred",
      "type": "event"
    },
    {
      "inputs": [],
      "name": "gameToken",
      "outputs": [
        {
          "internalType": "contract GameToken",
          "name": "",
          "type": "address"
        }
      ],
      "stateMutability": "view",
      "type": "function"
    },
    {
      "inputs": [
        {
          "internalType": "address",
          "name": "",
          "type": "address"
        }
      ],
      "name": "loginDays",
      "outputs": [
        {
          "internalType": "uint256",
          "name": "",
          "type": "uint256"
        }
      ],
      "stateMutability": "view",
      "type": "function"
    },
    {
      "inputs": [],
      "name": "owner",
      "outputs": [
        {
          "internalType": "address",
          "name": "",
          "type": "address"
        }
      ],
      "stateMutability": "view",
      "type": "function"
    },
    {
      "inputs": [
        {
          "internalType": "address",
          "name": "newOwner",
          "type": "address"
        }
      ],
      "name": "transferOwnership",
      "outputs": [],
      "stateMutability": "nonpayable",
      "type": "function"
    },
    {
      "inputs": [],
      "name": "claimDailyReward",
      "outputs": [],
      "stateMutability": "nonpayable",
      "type": "function"
    }
  ],
  "bytecode": "0x608060405234801561001057600080fd5b50604051610c19380380610c1983398181016040528101906100329190610189565b336000806101000a81548173ffffffffffffffffffffffffffffffffffffffff021916908373ffffffffffffffffffffffffffffffffffffffff1602179055503373ffffffffffffffffffffffffffffffffffffffff16600073ffffffffffffffffffffffffffffffffffffffff167f8be0079c531659141344cd1fd0a4f28419497f9722a3daafe3b4186f6b6457e060405160405180910390a380600160006101000a81548173ffffffffffffffffffffffffffffffffffffffff021916908373ffffffffffffffffffffffffffffffffffffffff160217905550506101b6565b600080fd5b600073ffffffffffffffffffffffffffffffffffffffff82169050919050565b600061014482610119565b9050919050565b600061015682610139565b9050919050565b6101668161014b565b811461017157600080fd5b50565b6000815190506101838161015d565b92915050565b60006020828403121561019f5761019e610114565b5b60006101ad84828501610174565b91505092915050565b610a54806101c56000396000f3fe608060405234801561001057600080fd5b50600436106100575760003560e01c80634fc4d4751461005c57806383f8b7e21461008c5780638da5cb5b14610096578063c3dfdae6146100b4578063f2fde38b146100d2575b600080fd5b610076600480360381019061007191906105d4565b6100ee565b604051610083919061061a565b60405180910390f35b610094610106565b005b61009e61036d565b6040516100ab9190610644565b60405180910390f35b6100bc610391565b6040516100c991906106be565b60405180910390f35b6100ec60048036038101906100e791906105d4565b6103b7565b005b60026020528060005260406000206000915090505481565b6007600260003373ffffffffffffffffffffffffffffffffffffffff1673ffffffffffffffffffffffffffffffffffffffff1681526020019081526020016000205410610188576040517f08c379a000000000000000000000000000000000000000000000000000000000815260040161017f9061075c565b60405180910390fd5b60006103e86001600260003373ffffffffffffffffffffffffffffffffffffffff1673ffffffffffffffffffffffffffffffffffffffff168152602001908152602001600020546101d991906107ab565b6101e391906107df565b9050600160009054906101000a900473ffffffffffffffffffffffffffffffffffffffff1673ffffffffffffffffffffffffffffffffffffffff1663a9059cbb33836040518363ffffffff1660e01b8152600401610242929190610821565b6020604051808303816000875af1158015610261573d6000803e3d6000fd5b505050506040513d601f19601f820116820180604052508101906102859190610882565b50600260003373ffffffffffffffffffffffffffffffffffffffff1673ffffffffffffffffffffffffffffffffffffffff16815260200190815260200160002060008154809291906102d6906108af565b91905055503373ffffffffffffffffffffffffffffffffffffffff167fa91a32de11197361c2b2b0553ce5d67f959a9aea1cc6c98009efbc08c58ec056600260003373ffffffffffffffffffffffffffffffffffffffff1673ffffffffffffffffffffffffffffffffffffffff16815260200190815260200160002054836040516103629291906108f7565b60405180910390a250565b60008054906101000a900473ffffffffffffffffffffffffffffffffffffffff1681565b600160009054906101000a900473ffffffffffffffffffffffffffffffffffffffff1681565b60008054906101000a900473ffffffffffffffffffffffffffffffffffffffff1673ffffffffffffffffffffffffffffffffffffffff163373ffffffffffffffffffffffffffffffffffffffff1614610445576040517f08c379a000000000000000000000000000000000000000000000000000000000815260040161043c9061096c565b60405180910390fd5b600073ffffffffffffffffffffffffffffffffffffffff168173ffffffffffffffffffffffffffffffffffffffff16036104b4576040517f08c379a00000000000000000000000000000000000000000000000000000000081526004016104ab906109fe565b60405180910390fd5b8073ffffffffffffffffffffffffffffffffffffffff1660008054906101000a900473ffffffffffffffffffffffffffffffffffffffff1673ffffffffffffffffffffffffffffffffffffffff167f8be0079c531659141344cd1fd0a4f28419497f9722a3daafe3b4186f6b6457e060405160405180910390a3806000806101000a81548173ffffffffffffffffffffffffffffffffffffffff021916908373ffffffffffffffffffffffffffffffffffffffff16021790555050565b600080fd5b600073ffffffffffffffffffffffffffffffffffffffff82169050919050565b60006105a182610576565b9050919050565b6105b181610596565b81146105bc57600080fd5b50565b6000813590506105ce816105a8565b92915050565b6000602082840312156105ea576105e9610571565b5b60006105f8848285016105bf565b91505092915050565b6000819050919050565b61061481610601565b82525050565b600060208201905061062f600083018461060b565b92915050565b61063e81610596565b82525050565b60006020820190506106596000830184610635565b92915050565b6000819050919050565b600061068461067f61067a84610576565b61065f565b610576565b9050919050565b600061069682610669565b9050919050565b60006106a88261068b565b9050919050565b6106b88161069d565b82525050565b60006020820190506106d360008301846106af565b92915050565b600082825260208201905092915050565b7f5265776172647320636c61696d656420666f722037206461797320616c72656160008201527f6479000000000000000000000000000000000000000000000000000000000000602082015250565b60006107466022836106d9565b9150610751826106ea565b604082019050919050565b6000602082019050818103600083015261077581610739565b9050919050565b7f4e487b7100000000000000000000000000000000000000000000000000000000600052601160045260246000fd5b60006107b682610601565b91506107c183610601565b92508282019050808211156107d9576107d861077c565b5b92915050565b60006107ea82610601565b91506107f583610601565b925082820261080381610601565b9150828204841483151761081a5761081961077c565b5b5092915050565b60006040820190506108366000830185610635565b610843602083018461060b565b9392505050565b60008115159050919050565b61085f8161084a565b811461086a57600080fd5b50565b60008151905061087c81610856565b92915050565b60006020828403121561089857610897610571565b5b60006108a68482850161086d565b91505092915050565b60006108ba82610601565b91507fffffffffffffffffffffffffffffffffffffffffffffffffffffffffffffffff82036108ec576108eb61077c565b5b600182019050919050565b600060408201905061090c600083018561060b565b610919602083018461060b565b9392505050565b7f4f776e61626c653a2063616c6c6572206973206e6f7420746865206f776e6572600082015250565b60006109566020836106d9565b915061096182610920565b602082019050919050565b6000602082019050818103600083015261098581610949565b9050919050565b7f4f776e61626c653a206e6577206f776e657220697320746865207a65726f206160008201527f6464726573730000000000000000000000000000000000000000000000000000602082015250565b60006109e86026836106d9565b91506109f38261098c565b604082019050919050565b60006020820190508181036000830152610a17816109db565b905091905056fea26469706673582212203c34f8a077318daf109fd113fc2ea0348eb29f8c87ea1be357b6774858831a9564736f6c63430008110033",
  "immutableReferences": {},
  "source": "// SPDX-License-Identifier: MIT\r\npragma solidity ^0.8.17;\r\n\r\ncontract ERC20 {\r\n    mapping(address => uint256) public balanceOf;\r\n    mapping(address => mapping(address => uint256)) public allowance;\r\n    uint256 public totalSupply;\r\n\r\n    event Transfer(address indexed from, address indexed to, uint256 value);\r\n    event Approval(\r\n        address indexed owner,\r\n        address indexed spender,\r\n        uint256 value\r\n    );\r\n\r\n    function _transfer(address from, address to, uint256 value) internal {\r\n        require(from != address(0), \"ERC20: transfer from the zero address\");\r\n        require(to != address(0), \"ERC20: transfer to the zero address\");\r\n        require(balanceOf[from] >= value, \"ERC20: insufficient balance\");\r\n\r\n        balanceOf[from] -= value;\r\n        balanceOf[to] += value;\r\n        emit Transfer(from, to, value);\r\n    }\r\n\r\n    function transfer(address to, uint256 value) external returns (bool) {\r\n        _transfer(msg.sender, to, value);\r\n        return true;\r\n    }\r\n\r\n    function approve(address spender, uint256 value) external returns (bool) {\r\n        allowance[msg.sender][spender] = value;\r\n        emit Approval(msg.sender, spender, value);\r\n        return true;\r\n    }\r\n\r\n    function transferFrom(\r\n        address from,\r\n        address to,\r\n        uint256 value\r\n    ) external returns (bool) {\r\n        require(\r\n            allowance[from][msg.sender] >= value,\r\n            \"ERC20: insufficient allowance\"\r\n        );\r\n        allowance[from][msg.sender] -= value;\r\n        _transfer(from, to, value);\r\n        return true;\r\n    }\r\n}\r\n\r\ncontract Ownable {\r\n    address public owner;\r\n\r\n    event OwnershipTransferred(\r\n        address indexed previousOwner,\r\n        address indexed newOwner\r\n    );\r\n\r\n    constructor() {\r\n        owner = msg.sender;\r\n        emit OwnershipTransferred(address(0), msg.sender);\r\n    }\r\n\r\n    modifier onlyOwner() {\r\n        require(msg.sender == owner, \"Ownable: caller is not the owner\");\r\n        _;\r\n    }\r\n\r\n    function transferOwnership(address newOwner) external onlyOwner {\r\n        require(\r\n            newOwner != address(0),\r\n            \"Ownable: new owner is the zero address\"\r\n        );\r\n        emit OwnershipTransferred(owner, newOwner);\r\n        owner = newOwner;\r\n    }\r\n}\r\n\r\ncontract GameToken is ERC20, Ownable {\r\n    constructor() {\r\n        totalSupply = 1000000 * 10 ** 18; // 1,000,000 tokens with 18 decimals\r\n        balanceOf[msg.sender] = totalSupply;\r\n        emit Transfer(address(0), msg.sender, totalSupply);\r\n    }\r\n}\r\n\r\n// Define the DailyLogin contract\r\ncontract DailyLogin is Ownable {\r\n    GameToken public gameToken;\r\n\r\n    mapping(address => uint256) public loginDays;\r\n\r\n    event DailyReward(address indexed player, uint256 day, uint256 reward);\r\n\r\n    constructor(GameToken _gameToken) {\r\n        gameToken = _gameToken;\r\n    }\r\n\r\n    function claimDailyReward() external {\r\n        require(\r\n            loginDays[msg.sender] < 7,\r\n            \"Rewards claimed for 7 days already\"\r\n        );\r\n\r\n        uint256 reward = (loginDays[msg.sender] + 1) * 1000;\r\n\r\n        gameToken.transfer(msg.sender, reward);\r\n\r\n        loginDays[msg.sender]++;\r\n\r\n        emit DailyReward(msg.sender, loginDays[msg.sender], reward);\r\n    }\r\n}\r\n",
  "sourcePath": "D:\\Documents\\Programming\\SIIT\\Blockchain\\Ganache\\contracts\\DailyLogin2.sol",
  "compiler": {
    "name": "solc",
    "version": "0.8.17+commit.8df45f5f.Emscripten.clang"
  },
  "schemaVersion": "3.4.16",
  "updatedAt": "2023-12-17T15:24:14.679Z",
  "devdoc": {
    "kind": "dev",
    "methods": {},
    "version": 1
  },
  "userdoc": {
    "kind": "user",
    "methods": {},
    "version": 1
  }
}