{
  "contractName": "GameCurrency",
  "abi": [
    {
      "inputs": [
        {
          "internalType": "string",
          "name": "_name",
          "type": "string"
        },
        {
          "internalType": "uint256",
          "name": "_initialSupply",
          "type": "uint256"
        }
      ],
      "stateMutability": "nonpayable",
      "type": "constructor"
    },
    {
      "inputs": [
        {
          "internalType": "address",
          "name": "",
          "type": "address"
        }
      ],
      "name": "balanceOf",
      "outputs": [
        {
          "internalType": "uint256",
          "name": "",
          "type": "uint256"
        }
      ],
      "stateMutability": "view",
      "type": "function",
      "constant": true
    },
    {
      "inputs": [
        {
          "internalType": "address",
          "name": "to",
          "type": "address"
        },
        {
          "internalType": "uint256",
          "name": "value",
          "type": "uint256"
        }
      ],
      "name": "transfer",
      "outputs": [
        {
          "internalType": "bool",
          "name": "",
          "type": "bool"
        }
      ],
      "stateMutability": "nonpayable",
      "type": "function"
    },
    {
      "inputs": [
        {
          "internalType": "uint256",
          "name": "value",
          "type": "uint256"
        }
      ],
      "name": "deposit",
      "outputs": [
        {
          "internalType": "bool",
          "name": "",
          "type": "bool"
        }
      ],
      "stateMutability": "nonpayable",
      "type": "function"
    },
    {
      "inputs": [
        {
          "internalType": "uint256",
          "name": "value",
          "type": "uint256"
        }
      ],
      "name": "withdraw",
      "outputs": [
        {
          "internalType": "bool",
          "name": "",
          "type": "bool"
        }
      ],
      "stateMutability": "nonpayable",
      "type": "function"
    },
    {
      "inputs": [],
      "name": "checkBalance",
      "outputs": [
        {
          "internalType": "uint256",
          "name": "",
          "type": "uint256"
        }
      ],
      "stateMutability": "view",
      "type": "function",
      "constant": true
    }
  ],
  "bytecode": "0x60806040523480156200001157600080fd5b5060405162000cf538038062000cf5833981810160405281019062000037919062000263565b81600090816200004891906200050a565b5080600160003373ffffffffffffffffffffffffffffffffffffffff1673ffffffffffffffffffffffffffffffffffffffff168152602001908152602001600020819055505050620005f1565b6000604051905090565b600080fd5b600080fd5b600080fd5b600080fd5b6000601f19601f8301169050919050565b7f4e487b7100000000000000000000000000000000000000000000000000000000600052604160045260246000fd5b620000fe82620000b3565b810181811067ffffffffffffffff8211171562000120576200011f620000c4565b5b80604052505050565b60006200013562000095565b9050620001438282620000f3565b919050565b600067ffffffffffffffff821115620001665762000165620000c4565b5b6200017182620000b3565b9050602081019050919050565b60005b838110156200019e57808201518184015260208101905062000181565b60008484015250505050565b6000620001c1620001bb8462000148565b62000129565b905082815260208101848484011115620001e057620001df620000ae565b5b620001ed8482856200017e565b509392505050565b600082601f8301126200020d576200020c620000a9565b5b81516200021f848260208601620001aa565b91505092915050565b6000819050919050565b6200023d8162000228565b81146200024957600080fd5b50565b6000815190506200025d8162000232565b92915050565b600080604083850312156200027d576200027c6200009f565b5b600083015167ffffffffffffffff8111156200029e576200029d620000a4565b5b620002ac85828601620001f5565b9250506020620002bf858286016200024c565b9150509250929050565b600081519050919050565b7f4e487b7100000000000000000000000000000000000000000000000000000000600052602260045260246000fd5b600060028204905060018216806200031c57607f821691505b602082108103620003325762000331620002d4565b5b50919050565b60008190508160005260206000209050919050565b60006020601f8301049050919050565b600082821b905092915050565b6000600883026200039c7fffffffffffffffffffffffffffffffffffffffffffffffffffffffffffffffff826200035d565b620003a886836200035d565b95508019841693508086168417925050509392505050565b6000819050919050565b6000620003eb620003e5620003df8462000228565b620003c0565b62000228565b9050919050565b6000819050919050565b6200040783620003ca565b6200041f6200041682620003f2565b8484546200036a565b825550505050565b600090565b6200043662000427565b62000443818484620003fc565b505050565b5b818110156200046b576200045f6000826200042c565b60018101905062000449565b5050565b601f821115620004ba57620004848162000338565b6200048f846200034d565b810160208510156200049f578190505b620004b7620004ae856200034d565b83018262000448565b50505b505050565b600082821c905092915050565b6000620004df60001984600802620004bf565b1980831691505092915050565b6000620004fa8383620004cc565b9150826002028217905092915050565b6200051582620002c9565b67ffffffffffffffff811115620005315762000530620000c4565b5b6200053d825462000303565b6200054a8282856200046f565b600060209050601f8311600181146200058257600084156200056d578287015190505b620005798582620004ec565b865550620005e9565b601f198416620005928662000338565b60005b82811015620005bc5784890151825560018201915060208501945060208101905062000595565b86831015620005dc5784890151620005d8601f891682620004cc565b8355505b6001600288020188555050505b505050505050565b6106f480620006016000396000f3fe608060405234801561001057600080fd5b50600436106100575760003560e01c80632e1a7d4d1461005c57806370a082311461008c578063a9059cbb146100bc578063b6b55f25146100ec578063c71daccb1461011c575b600080fd5b61007660048036038101906100719190610452565b61013a565b604051610083919061049a565b60405180910390f35b6100a660048036038101906100a19190610513565b61021d565b6040516100b3919061054f565b60405180910390f35b6100d660048036038101906100d1919061056a565b610235565b6040516100e3919061049a565b60405180910390f35b61010660048036038101906101019190610452565b61036f565b604051610113919061049a565b60405180910390f35b6101246103d0565b604051610131919061054f565b60405180910390f35b6000600160003373ffffffffffffffffffffffffffffffffffffffff1673ffffffffffffffffffffffffffffffffffffffff168152602001908152602001600020548211156101be576040517f08c379a00000000000000000000000000000000000000000000000000000000081526004016101b590610607565b60405180910390fd5b81600160003373ffffffffffffffffffffffffffffffffffffffff1673ffffffffffffffffffffffffffffffffffffffff168152602001908152602001600020600082825461020d9190610656565b9250508190555060019050919050565b60016020528060005260406000206000915090505481565b6000600160003373ffffffffffffffffffffffffffffffffffffffff1673ffffffffffffffffffffffffffffffffffffffff168152602001908152602001600020548211156102b9576040517f08c379a00000000000000000000000000000000000000000000000000000000081526004016102b090610607565b60405180910390fd5b81600160003373ffffffffffffffffffffffffffffffffffffffff1673ffffffffffffffffffffffffffffffffffffffff16815260200190815260200160002060008282546103089190610656565b9250508190555081600160008573ffffffffffffffffffffffffffffffffffffffff1673ffffffffffffffffffffffffffffffffffffffff168152602001908152602001600020600082825461035e919061068a565b925050819055506001905092915050565b600081600160003373ffffffffffffffffffffffffffffffffffffffff1673ffffffffffffffffffffffffffffffffffffffff16815260200190815260200160002060008282546103c0919061068a565b9250508190555060019050919050565b6000600160003373ffffffffffffffffffffffffffffffffffffffff1673ffffffffffffffffffffffffffffffffffffffff16815260200190815260200160002054905090565b600080fd5b6000819050919050565b61042f8161041c565b811461043a57600080fd5b50565b60008135905061044c81610426565b92915050565b60006020828403121561046857610467610417565b5b60006104768482850161043d565b91505092915050565b60008115159050919050565b6104948161047f565b82525050565b60006020820190506104af600083018461048b565b92915050565b600073ffffffffffffffffffffffffffffffffffffffff82169050919050565b60006104e0826104b5565b9050919050565b6104f0816104d5565b81146104fb57600080fd5b50565b60008135905061050d816104e7565b92915050565b60006020828403121561052957610528610417565b5b6000610537848285016104fe565b91505092915050565b6105498161041c565b82525050565b60006020820190506105646000830184610540565b92915050565b6000806040838503121561058157610580610417565b5b600061058f858286016104fe565b92505060206105a08582860161043d565b9150509250929050565b600082825260208201905092915050565b7f496e73756666696369656e742062616c616e6365000000000000000000000000600082015250565b60006105f16014836105aa565b91506105fc826105bb565b602082019050919050565b60006020820190508181036000830152610620816105e4565b9050919050565b7f4e487b7100000000000000000000000000000000000000000000000000000000600052601160045260246000fd5b60006106618261041c565b915061066c8361041c565b925082820390508181111561068457610683610627565b5b92915050565b60006106958261041c565b91506106a08361041c565b92508282019050808211156106b8576106b7610627565b5b9291505056fea2646970667358221220178f9639c257d72c438cc6de5dda66851190632661e98ba94891f7cc2dd89d8f64736f6c63430008110033",
  "immutableReferences": {},
  "source": "// SPDX-License-Identifier: MIT\r\npragma solidity ^0.8.17;\r\n\r\ncontract GameCurrency {\r\n    string name;\r\n\r\n    mapping(address => uint) public balanceOf;\r\n\r\n    constructor(string memory _name, uint _initialSupply) {\r\n        name = _name;\r\n        balanceOf[msg.sender] = _initialSupply;\r\n    }\r\n\r\n    function transfer(address to, uint value) external returns (bool) {\r\n        require(value <= balanceOf[msg.sender], \"Insufficient balance\");\r\n        balanceOf[msg.sender] -= value;\r\n        balanceOf[to] += value;\r\n        return true;\r\n    }\r\n\r\n    function deposit(uint value) external returns (bool) {\r\n        balanceOf[msg.sender] += value;\r\n        return true;\r\n    }\r\n\r\n    function withdraw(uint value) external returns (bool) {\r\n        require(value <= balanceOf[msg.sender], \"Insufficient balance\");\r\n        balanceOf[msg.sender] -= value;\r\n        return true;\r\n    }\r\n\r\n    function checkBalance() external view returns (uint) {\r\n        return balanceOf[msg.sender];\r\n    }\r\n}\r\n",
  "sourcePath": "D:\\Documents\\Programming\\SIIT\\Blockchain\\Ganache\\contracts\\GameCurrency.sol",
  "compiler": {
    "name": "solc",
    "version": "0.8.17+commit.8df45f5f.Emscripten.clang"
  },
  "schemaVersion": "3.4.16",
  "updatedAt": "2023-12-17T15:24:15.998Z",
  "networkType": "ethereum",
  "devdoc": {
    "kind": "dev",
    "methods": {},
    "version": 1
  },
  "userdoc": {
    "kind": "user",
    "methods": {},
    "version": 1
  }
}