{
  "contractName": "GameReward",
  "abi": [
    {
      "inputs": [
        {
          "internalType": "address",
          "name": "_authenAddress",
          "type": "address"
        },
        {
          "internalType": "address",
          "name": "_gcAddress",
          "type": "address"
        }
      ],
      "stateMutability": "nonpayable",
      "type": "constructor"
    },
    {
      "inputs": [],
      "name": "authentication",
      "outputs": [
        {
          "internalType": "contract Authentication",
          "name": "",
          "type": "address"
        }
      ],
      "stateMutability": "view",
      "type": "function",
      "constant": true
    },
    {
      "inputs": [],
      "name": "dailyReward",
      "outputs": [
        {
          "internalType": "uint256",
          "name": "rewardNum",
          "type": "uint256"
        },
        {
          "internalType": "uint256",
          "name": "rewardAmount",
          "type": "uint256"
        },
        {
          "internalType": "uint256",
          "name": "rewardTimestamp",
          "type": "uint256"
        }
      ],
      "stateMutability": "view",
      "type": "function",
      "constant": true
    },
    {
      "inputs": [],
      "name": "gameCurrency",
      "outputs": [
        {
          "internalType": "contract GameCurrency",
          "name": "",
          "type": "address"
        }
      ],
      "stateMutability": "view",
      "type": "function",
      "constant": true
    },
    {
      "inputs": [
        {
          "internalType": "string",
          "name": "username",
          "type": "string"
        },
        {
          "internalType": "string",
          "name": "password",
          "type": "string"
        }
      ],
      "name": "register",
      "outputs": [
        {
          "internalType": "bool",
          "name": "",
          "type": "bool"
        }
      ],
      "stateMutability": "nonpayable",
      "type": "function"
    },
    {
      "inputs": [
        {
          "internalType": "string",
          "name": "password",
          "type": "string"
        }
      ],
      "name": "login",
      "outputs": [
        {
          "internalType": "bool",
          "name": "",
          "type": "bool"
        }
      ],
      "stateMutability": "nonpayable",
      "type": "function"
    },
    {
      "inputs": [],
      "name": "logout",
      "outputs": [
        {
          "internalType": "bool",
          "name": "",
          "type": "bool"
        }
      ],
      "stateMutability": "nonpayable",
      "type": "function"
    },
    {
      "inputs": [],
      "name": "checkLogin",
      "outputs": [
        {
          "internalType": "bool",
          "name": "",
          "type": "bool"
        }
      ],
      "stateMutability": "view",
      "type": "function",
      "constant": true
    },
    {
      "inputs": [],
      "name": "claimDailyReward",
      "outputs": [
        {
          "internalType": "bool",
          "name": "",
          "type": "bool"
        }
      ],
      "stateMutability": "nonpayable",
      "type": "function"
    },
    {
      "inputs": [],
      "name": "checkBalance",
      "outputs": [
        {
          "internalType": "uint256",
          "name": "",
          "type": "uint256"
        }
      ],
      "stateMutability": "view",
      "type": "function",
      "constant": true
    }
  ],
  "bytecode": "0x60806040523480156200001157600080fd5b5060405162000f8f38038062000f8f83398181016040528101906200003791906200014a565b81600460006101000a81548173ffffffffffffffffffffffffffffffffffffffff021916908373ffffffffffffffffffffffffffffffffffffffff16021790555080600360006101000a81548173ffffffffffffffffffffffffffffffffffffffff021916908373ffffffffffffffffffffffffffffffffffffffff16021790555060016000600101819055506000806002018190555060008060000181905550505062000191565b600080fd5b600073ffffffffffffffffffffffffffffffffffffffff82169050919050565b60006200011282620000e5565b9050919050565b620001248162000105565b81146200013057600080fd5b50565b600081519050620001448162000119565b92915050565b60008060408385031215620001645762000163620000e0565b5b6000620001748582860162000133565b9250506020620001878582860162000133565b9150509250929050565b610dee80620001a16000396000f3fe608060405234801561001057600080fd5b50600436106100935760003560e01c80637ab98695116100665780637ab986951461013457806383f8b7e214610152578063b996c17014610170578063c71daccb1461018e578063c964ad45146101ac57610093565b80631f3c99c3146100985780633221ff8a146100b65780633a7d280c146100d45780633ffbd47f14610104575b600080fd5b6100a06101cc565b6040516100ad91906106f0565b60405180910390f35b6100be610271565b6040516100cb91906106f0565b60405180910390f35b6100ee60048036038101906100e99190610865565b610314565b6040516100fb91906106f0565b60405180910390f35b61011e600480360381019061011991906108ae565b6103bd565b60405161012b91906106f0565b60405180910390f35b61013c610469565b60405161014991906109a5565b60405180910390f35b61015a61048f565b60405161016791906106f0565b60405180910390f35b6101786105ff565b60405161018591906109e1565b60405180910390f35b610196610625565b6040516101a39190610a15565b60405180910390f35b6101b46106bd565b6040516101c393929190610a30565b60405180910390f35b6000600460009054906101000a900473ffffffffffffffffffffffffffffffffffffffff1673ffffffffffffffffffffffffffffffffffffffff1663cc51f9b9336040518263ffffffff1660e01b81526004016102299190610a88565b6020604051808303816000875af1158015610248573d6000803e3d6000fd5b505050506040513d601f19601f8201168201806040525081019061026c9190610acf565b905090565b6000600460009054906101000a900473ffffffffffffffffffffffffffffffffffffffff1673ffffffffffffffffffffffffffffffffffffffff1663f6f2ede0336040518263ffffffff1660e01b81526004016102ce9190610a88565b602060405180830381865afa1580156102eb573d6000803e3d6000fd5b505050506040513d601f19601f8201168201806040525081019061030f9190610acf565b905090565b6000600460009054906101000a900473ffffffffffffffffffffffffffffffffffffffff1673ffffffffffffffffffffffffffffffffffffffff16632f19d50b33846040518363ffffffff1660e01b8152600401610373929190610b7b565b6020604051808303816000875af1158015610392573d6000803e3d6000fd5b505050506040513d601f19601f820116820180604052508101906103b69190610acf565b9050919050565b6000600460009054906101000a900473ffffffffffffffffffffffffffffffffffffffff1673ffffffffffffffffffffffffffffffffffffffff16638d59cc023385856040518463ffffffff1660e01b815260040161041e93929190610bab565b6020604051808303816000875af115801561043d573d6000803e3d6000fd5b505050506040513d601f19601f820116820180604052508101906104619190610acf565b905092915050565b600360009054906101000a900473ffffffffffffffffffffffffffffffffffffffff1681565b600062015180600060020154426104a69190610c1f565b10156104e7576040517f08c379a00000000000000000000000000000000000000000000000000000000081526004016104de90610c9f565b60405180910390fd5b6104ef610271565b61052e576040517f08c379a000000000000000000000000000000000000000000000000000000000815260040161052590610d0b565b60405180910390fd5b42600060020181905550600360009054906101000a900473ffffffffffffffffffffffffffffffffffffffff1673ffffffffffffffffffffffffffffffffffffffff1663b6b55f256000600101546040518263ffffffff1660e01b81526004016105989190610a15565b6020604051808303816000875af11580156105b7573d6000803e3d6000fd5b505050506040513d601f19601f820116820180604052508101906105db9190610acf565b5060016000800160008282546105f19190610d2b565b925050819055506001905090565b600460009054906101000a900473ffffffffffffffffffffffffffffffffffffffff1681565b6000600360009054906101000a900473ffffffffffffffffffffffffffffffffffffffff1673ffffffffffffffffffffffffffffffffffffffff1663c71daccb6040518163ffffffff1660e01b8152600401602060405180830381865afa158015610694573d6000803e3d6000fd5b505050506040513d601f19601f820116820180604052508101906106b89190610d8b565b905090565b60008060000154908060010154908060020154905083565b60008115159050919050565b6106ea816106d5565b82525050565b600060208201905061070560008301846106e1565b92915050565b6000604051905090565b600080fd5b600080fd5b600080fd5b600080fd5b6000601f19601f8301169050919050565b7f4e487b7100000000000000000000000000000000000000000000000000000000600052604160045260246000fd5b61077282610729565b810181811067ffffffffffffffff821117156107915761079061073a565b5b80604052505050565b60006107a461070b565b90506107b08282610769565b919050565b600067ffffffffffffffff8211156107d0576107cf61073a565b5b6107d982610729565b9050602081019050919050565b82818337600083830152505050565b6000610808610803846107b5565b61079a565b90508281526020810184848401111561082457610823610724565b5b61082f8482856107e6565b509392505050565b600082601f83011261084c5761084b61071f565b5b813561085c8482602086016107f5565b91505092915050565b60006020828403121561087b5761087a610715565b5b600082013567ffffffffffffffff8111156108995761089861071a565b5b6108a584828501610837565b91505092915050565b600080604083850312156108c5576108c4610715565b5b600083013567ffffffffffffffff8111156108e3576108e261071a565b5b6108ef85828601610837565b925050602083013567ffffffffffffffff8111156109105761090f61071a565b5b61091c85828601610837565b9150509250929050565b600073ffffffffffffffffffffffffffffffffffffffff82169050919050565b6000819050919050565b600061096b61096661096184610926565b610946565b610926565b9050919050565b600061097d82610950565b9050919050565b600061098f82610972565b9050919050565b61099f81610984565b82525050565b60006020820190506109ba6000830184610996565b92915050565b60006109cb82610972565b9050919050565b6109db816109c0565b82525050565b60006020820190506109f660008301846109d2565b92915050565b6000819050919050565b610a0f816109fc565b82525050565b6000602082019050610a2a6000830184610a06565b92915050565b6000606082019050610a456000830186610a06565b610a526020830185610a06565b610a5f6040830184610a06565b949350505050565b6000610a7282610926565b9050919050565b610a8281610a67565b82525050565b6000602082019050610a9d6000830184610a79565b92915050565b610aac816106d5565b8114610ab757600080fd5b50565b600081519050610ac981610aa3565b92915050565b600060208284031215610ae557610ae4610715565b5b6000610af384828501610aba565b91505092915050565b600081519050919050565b600082825260208201905092915050565b60005b83811015610b36578082015181840152602081019050610b1b565b60008484015250505050565b6000610b4d82610afc565b610b578185610b07565b9350610b67818560208601610b18565b610b7081610729565b840191505092915050565b6000604082019050610b906000830185610a79565b8181036020830152610ba28184610b42565b90509392505050565b6000606082019050610bc06000830186610a79565b8181036020830152610bd28185610b42565b90508181036040830152610be68184610b42565b9050949350505050565b7f4e487b7100000000000000000000000000000000000000000000000000000000600052601160045260246000fd5b6000610c2a826109fc565b9150610c35836109fc565b9250828203905081811115610c4d57610c4c610bf0565b5b92915050565b7f526577617264206e6f7420726561647920796574000000000000000000000000600082015250565b6000610c89601483610b07565b9150610c9482610c53565b602082019050919050565b60006020820190508181036000830152610cb881610c7c565b9050919050565b7f5573657220646964206e6f74206c6f67696e0000000000000000000000000000600082015250565b6000610cf5601283610b07565b9150610d0082610cbf565b602082019050919050565b60006020820190508181036000830152610d2481610ce8565b9050919050565b6000610d36826109fc565b9150610d41836109fc565b9250828201905080821115610d5957610d58610bf0565b5b92915050565b610d68816109fc565b8114610d7357600080fd5b50565b600081519050610d8581610d5f565b92915050565b600060208284031215610da157610da0610715565b5b6000610daf84828501610d76565b9150509291505056fea26469706673582212200bee119bfe7446ca1ae3936ccca02aa1ea8ee6a9a6cbce0c434e5b625800dc7064736f6c63430008110033",
  "immutableReferences": {},
  "source": "// SPDX-License-Identifier: MIT\r\npragma solidity ^0.8.17;\r\n\r\nimport \"./GameCurrency.sol\";\r\nimport \"./Authentication.sol\";\r\n\r\ncontract GameReward {\r\n    struct DailyReward {\r\n        uint rewardNum;\r\n        uint rewardAmount;\r\n        uint rewardTimestamp;\r\n    }\r\n\r\n    DailyReward public dailyReward;\r\n\r\n    GameCurrency public gameCurrency;\r\n    Authentication public authentication;\r\n\r\n    uint private current_time;\r\n\r\n    constructor(address _authenAddress, address _gcAddress) {\r\n        authentication = Authentication(_authenAddress);\r\n        gameCurrency = GameCurrency(_gcAddress);\r\n        dailyReward.rewardAmount = 1;\r\n        dailyReward.rewardTimestamp = 0;\r\n        dailyReward.rewardNum = 0;\r\n    }\r\n\r\n    function register(\r\n        string memory username,\r\n        string memory password\r\n    ) public returns (bool) {\r\n        return authentication.register(msg.sender, username, password);\r\n    }\r\n\r\n    function login(string memory password) public returns (bool) {\r\n        return authentication.login(msg.sender, password);\r\n    }\r\n\r\n    function logout() public returns (bool) {\r\n        return authentication.logout(msg.sender);\r\n    }\r\n\r\n    function checkLogin() public view returns (bool) {\r\n        return authentication.checkLogIn(msg.sender);\r\n    }\r\n\r\n    function claimDailyReward() public returns (bool) {\r\n        //It should not be block.timestamp\r\n        require(\r\n            block.timestamp - dailyReward.rewardTimestamp >= 1 days,\r\n            \"Reward not ready yet\"\r\n        );\r\n\r\n        require(checkLogin(), \"User did not login\");\r\n\r\n        dailyReward.rewardTimestamp = block.timestamp;\r\n\r\n        gameCurrency.deposit(dailyReward.rewardAmount);\r\n\r\n        dailyReward.rewardNum += 1;\r\n\r\n        return true;\r\n    }\r\n\r\n    function checkBalance() public view returns (uint) {\r\n        return gameCurrency.checkBalance();\r\n    }\r\n}\r\n",
  "sourcePath": "D:\\Documents\\Programming\\SIIT\\Blockchain\\Ganache\\contracts\\GameReward.sol",
  "compiler": {
    "name": "solc",
    "version": "0.8.17+commit.8df45f5f.Emscripten.clang"
  },
  "schemaVersion": "3.4.16",
  "updatedAt": "2023-12-17T15:24:16.009Z",
  "networkType": "ethereum",
  "devdoc": {
    "kind": "dev",
    "methods": {},
    "version": 1
  },
  "userdoc": {
    "kind": "user",
    "methods": {},
    "version": 1
  }
}